:020000040000FA
:10000000C86D0020A12A0000195C0000752A0000BC
:10001000752A0000752A0000752A0000752A000064
:100020000000000000000000000000007D2700002C
:10003000752A000000000000752A0000752A0000E3
:10004000D9270000D9270000D9270000D9270000B0
:10005000D9270000D9270000D9270000D9270000A0
:10006000D9270000D9270000D9270000D927000090
:10007000D9270000D9270000D9270000D927000080
:10008000D9270000D9270000D9270000D927000070
:10009000D9270000D9270000D9270000D927000060
:1000A000D9270000D9270000D9270000D927000050
:1000B000D9270000D9270000D9270000D927000040
:1000C000D9270000D9270000D9270000D927000030
:1000D000D9270000D9270000D9270000D927000020
:1000E000D9270000D9270000D9270000D927000010
:1000F000D9270000D9270000D9270000D927000000
:10010000D9270000D9270000D9270000D9270000EF
:10011000D9270000D9270000D9270000D9270000DF
:10012000D9270000D9270000D9270000D9270000CF
:10013000D9270000D9270000D9270000D9270000BF
:10014000D927000053B94AB9002908BF00281CBFAD
:100150004FF0FF314FF0FF3000F00CB8ADF1080C5C
:100160006DE904CE00F008F8DDF804E0DDE90223D3
:1001700004B07047704700BF2DE9F04786468C46B3
:100180000846089E154674461946002B40F0C1806B
:100190008542B2FA82F245D94AB1C2F1200300FA8F
:1001A00002FC954094402EFA03F343EA0C0C4FEA0C
:1001B000154EA8B2230CBCFBFEF80EFB18CC08FBB6
:1001C00000F943EA0C43994528D9EB1808F1FF37A9
:1001D00004D2994502D9A8F102072B44A3EB0903E5
:1001E000A4B2B3FBFEFC0EFB1C330CFB00F044EA94
:1001F0000344A04214D92C190CF1FF3304D2A042BD
:1002000002D9ACF102032C44241A43EA07401EB180
:10021000D440002334607360BDE8F0874746DDE7D3
:100220006346F1E792BB431B01214FEA154EAFB283
:10023000200CB3FBFEFC0EFB1C330CFB07F840EA62
:100240000343984561D9EB180CF1FF3004D298456F
:1002500002D9ACF102002B44A3EB0803A4B2B3FB18
:10026000FEFC0EFB1C330CFB07F744EA0344A742D9
:100270004DD92C190CF1FF3304D2A74202D9ACF1AD
:1002800002032C44E41B43EA0040C0E7C2F1200310
:100290009540944020FA03F12EFA03F34FEA154EED
:1002A0009040AFB20343B1FBFEFC0EFB1C10190CD7
:1002B0000CFB07F841EA0041884522D969180CF186
:1002C000FF3004D2884502D9ACF102002944A1EBE9
:1002D00008019BB2B1FBFEFC0EFB1C110CFB07F7E7
:1002E00043EA01439F420ED9EB180CF1FF3104D2CF
:1002F0009F4202D9ACF102012B44DB1B41EA0041D1
:1003000093E76046E3E76146F7E76046A4E76346A4
:10031000B8E7834206D916B9002108467CE7C6E94A
:1003200000E0F9E7B3FA83F78FB9834201D372454E
:1003300008D8BEEB020460EB030301209C461EB903
:10034000002169E73846FAE7C6E9004CF8E7C7F14B
:10035000200CBB400EFA07F522FA0CF42EFA0CF131
:10036000BA401C4320FA0CF3B8404FEA1449014349
:100370001FFA84FEB3FBF9F809FB18300B0C08FBDD
:100380000EFA43EA00439A4540D9E31808F1FF30DA
:1003900004D29A4502D9A8F102002344A3EB0A0330
:1003A00089B2B3FBF9F809FB183308FB0EFE41EAEA
:1003B00003418E452CD9611808F1FF3304D28E45D4
:1003C00002D9A8F10203214443EA0040A1EB0E0147
:1003D000A0FB02984145CE46434602D306D14D4587
:1003E00004D20138B9EB020E68EB0403002EA7D04B
:1003F000B5EB0E0261EB030101FA0CFC22FA07F3E4
:10040000F9404CEA0303C6E9003199E74046C5E7E5
:100410004346D9E77FB5374B374AC3F80026C3F8C0
:100420000426C3F80826C3F80C26C3F81026C3F820
:100430001426C3F81826C3F81C2600F067F82F4CC2
:10044000204607F0ECFE00B32569A6682B681A2148
:1004500043F080632B6020463368294A9847204642
:10046000736801A9984720B92A68019B53405A0133
:100470000BD54FF05023D3F800340BB1DB0704D574
:1004800001F050FC1F4801F0D5FF00F071FA05465D
:1004900001A800F0B9FC0446284600F079FA1A4B8E
:1004A0001B68A34201D004F0C8FF69469DF808000C
:1004B00004F0AEFE009B039C1C44019B1D8903F0CD
:1004C0002FFA661900F046FE00F028FE02F02AFB23
:1004D000002383F30B8883F30A88625982F3088828
:1004E00083F31488BFF36F8FBFF36F8F73689847E0
:1004F000FEE700BF008001503546526EE4820000E6
:1005000011000100E8850000080000204FF4C051F0
:10051000014803F037BC00BFDA1B00202DE9F04F83
:10052000DFF8E0A1F9B038A8DDE9847816461C466A
:10053000DDF818B2DAF8005007F024FA002138A8E4
:1005400003F034FD3FB1B8F1000F04DD42463946F7
:1005500038A807F01BFA4FF00008738937891F4449
:10056000F3681F4447454ED80DA938A807F052FA42
:10057000BBF1000F04D0202258460DA905F081FBE5
:1005800000232246009331464FF6FF7307A804F07C
:1005900069FE8046002833D120460C9E04F03EFFC1
:1005A00086422DD84FF0FF37DFF85C910DF116032E
:1005B00005AA06A907A804F0A3FE002820DB40F046
:1005C0009880BDF81660102E35D1BDF81460202E2D
:1005D00016D133462046069938AA05F073FA78B941
:1005E00000F0C6F93246804638A90DA800F088F917
:1005F0000646404600F0CCF9444B1B68B34217D086
:10060000DAF8005078E0839BA7EB0809994528BFEA
:10061000994641464B462046829A05F053FA0028F7
:10062000EED14A46829938A807F0B0F9C84499E754
:100630004FF00108BAE7012E35D1BDF81430202B58
:10064000DED82046069938AA05F03CFA074600286D
:10065000D6D19DF814B0BBF1200F02D94FF0FF376F
:10066000A4E7D9F800302A4E0393039B9F42F5DAA2
:100670001DA807F087F900211DA803F097FC7268F8
:100680001DA8126856F8081B07F080F915A91DA8C7
:1006900007F0C0F95A4638A915A805F0CBFA00288A
:1006A00084D00137E1E7202E80D17B1C3FF47EAF60
:1006B000D9F80030BB42D1DDBDF81430B3F5807FEE
:1006C0009ED12046069938AA05F0FCF9002897D15A
:1006D00000F04EF9FFB283463146BDF8143038AA17
:1006E00000970DA800F016F80546584600F050F99E
:1006F000B4E7B8F1000F83D000F042F9284679B092
:10070000BDE8F08F04000020F08500000800002004
:10071000F48500002DE9F04FDFF8D8A1ADF54D7D4F
:10072000064629A89DF858B3884617469946DAF830
:10073000005007F0E4F8704B8CAA53F83B4003EBF1
:10074000CB035B6804941B6804A81C442146302337
:1007500005F0FCFE70BB049B8C9A13449C4229D18B
:1007600021462BAA04A805F005FF18BB0DF1B80B14
:100770005A46214604A805F0FDFE0390D0B92BA8E7
:1007800005F0EFFF049A2A90944213D1039BCDF811
:1007900004B01A4600932BA929A807F06DF848B9B0
:1007A00029A803F095FB28B92BA805F0DAFF8145AD
:1007B0002A900CD029A807F0ACF829A807F0A9F8CE
:1007C00000F0DEF828460DF54D7DBDE8F08F00F015
:1007D000CFF82A9B8146B3F5807FDAF8005040F0CD
:1007E0008280B8F1200F7ED139468CAA29A803F067
:1007F00095FB0446002876D19DF82F33BC2B72D18F
:10080000DF2705900DF5A87A0EA807F0BBF80021A8
:100810000EA803F0CBFB20220DF20F310EA807F03B
:10082000B5F8042205A90EA807F0B0F806A90EA88D
:1008300007F0F0F8202FB846A8BF4FF020089DF829
:10084000173050460133424606A9A7EB08078DF83A
:10085000173005F016FA002FC244D5DC54AA104612
:10086000DF218CAB077813F801CB013987EA0C073D
:1008700000F8017BF6D19DF8503103F07F038DF82D
:10088000503112F8017B77BB0134BE2CF9D19DF8B1
:100890000E32012B27D10EA807F074F839460EA8A6
:1008A00003F084FB082215490EA807F06FF83146C3
:1008B00020220EA807F06AF820220DF20F210EA8C0
:1008C00007F064F806A90EA807F0A4F800F050F8A5
:1008D000202204460DF20F3106A800F011F805465B
:1008E000204600F055F800F04BF8484600F050F86C
:1008F00063E700BF04000020F4850000D8890000F1
:1009000070B5094B04461D680023934205D1074B7F
:100910001D6800F035F8284670BDE65CC85C86426C
:10092000F7D10133F1E700BF0400002008000020E8
:100930001FB502200C4601F0F1F850B920681023D1
:1009400081686A46103905F0BDF828B1206805F0C5
:10095000B8F84FF0FF3006E010226846034905F072
:1009600069F90028F2D104B010BD00BFC0890000B1
:10097000024B1868421C1A60704700BF0802002032
:10098000024A1368013B1360704700BF0802002051
:10099000034B1B68834201D004F04FBD704700BF7A
:1009A000080200202DE9F04F3D4B8BB00646002099
:1009B0000D461C6804F032FC08A9C0B201F0AEF884
:1009C00028B1FFF7DDFF20460BB0BDE8F08F2946C8
:1009D00004F024FC4FF02C0B09A9C0B20BFB056BF3
:1009E00001F09CF800283FD02C276F4306EB070846
:1009F000D8F8104014F0100447D1FFF7B9FF089B56
:100A000081460793FFF7B4FF4FF480720192254AA5
:100A100021468246CDE90344079B0294009220467A
:100A20005A46FFF77BFD04465046FFF7B1FFFFF73C
:100A3000A7FF4846FFF7ACFF1B4BF25908989A42B4
:100A40000CD1D8F80C20B8F808309B1806D2826870
:100A5000934203D2154B1B68A3421DD0D5B1002190
:100A6000826805F059F815E0099805F070F8044619
:100A7000099805F026F80BF1FF330BF1030213F888
:100A8000011FA142B0D19342F9D11DB1304608995E
:100A900004F0A9FD064B1C68089805F012F890E7D1
:100AA00004000020DA3300203DB8F396080000204F
:100AB000000000207FB50D46002104462846CDE900
:100AC000021104F04FFDE8B1154E2368B34203D183
:100AD000204603AA04F0DAFCE36AB34204D1012100
:100AE000204602AA04F0D2FCDDE90232934288BF1C
:100AF0000393039BAB6029462046039A00F02CFA2F
:100B000004B070BD01A9FFF713FF019805F10801BA
:100B100004F05FFCAB680198039304F0D2FFEAE7AE
:100B20003DB8F3962DE9F84F884691469A4600263F
:100B3000DFF868B01A4C1B4D0B9B9E4201D300207E
:100B40000FE00B9B40469F1BB7F5806F28BF4FF40B
:100B50008067124A3B4606EB0A0104F0B3FF10B16E
:100B60000120BDE8F88F0A993B465A46484671185D
:100B700004F0BDFF0028F3D1C4F800563E44C4F889
:100B80000456C4F80856C4F80C56C4F81056C4F8F5
:100B90001456C4F81856C4F81C56CDE70C120020A1
:100BA000008001503546526E2DE9F0410E4600217D
:100BB000904B86B04362904B04460365084604F0B0
:100BC0002DFB04F12001C0B200F0A8FF012100209C
:100BD00004F024FB04F14C01C0B200F09FFF20465A
:100BE00004F095FC002849D100222046114604F06B
:100BF00037FC002859D1204604F021FE002854D0AB
:100C000002A804F0A6FC0146204604F041FD00289D
:100C10004BD102A804F0A6FC80F0010102AA2046F4
:100C2000C9B204F01DFC024600283ED102A804F01F
:100C300099FC0546E8BB204602A9FFF73BFF9DF85B
:100C40000F3084F85830033B012B06D8284604F0B7
:100C50006DFD10B1FF2384F858309DF80F30023B32
:100C6000022B06D8002004F04FFD10B1FF2384F8BA
:100C7000583094F85830FF2B12D1FEE701239842E8
:100C800084F85830B0D194F85830042B8DF80F30D8
:100C900045D8012B49D85BD0FF2384F8583057E062
:100CA0000021204602AA04F0DBFB012384F858301F
:100CB000E9E79DF80F70012F1ED1104602F0BEFE2D
:100CC000831E022B054614D8FFF752FE3946804694
:100CD0002046FFF767FE07464046FFF759FE474BA1
:100CE0001B689F4205D0464B1D68AF4214BF0525C7
:100CF000012584F85850C6E7FFF73AFE0121074660
:100D00002046FFF74FFE05463846FFF741FE3B4BB6
:100D10001B689D4214BF05239DF80F30C6E7052BC5
:100D2000BAD1002004F002FD10E0204602A9FFF72E
:100D3000C1FE94F85830DA1E012A2DD8002004F0A4
:100D4000F5FC0028A8D1002004F0DEFC0028A3D187
:100D500094F85830FF2B01D104F06FFB002194F878
:100D60005830284F012B019119D0204602AA04F0D7
:100D700077FBA0B13D681022002102A804F08CFF8F
:100D8000E06C04F09EFE206A04F09BFEFFF7F8FD85
:100D9000284606B0BDE8F081022BD9D1D3E7FFF792
:100DA000E7FD002180462046FFF7FCFD0546404652
:100DB000FFF7EEFDDFF84480D8F800309D42D9D12E
:100DC0003B689D42D6D00E4B1B689D42D2D0019B02
:100DD00001330193019B012B01D004F02EFB206A0B
:100DE00004F025FA3071236A5B683460D8F800504B
:100DF000B360C0E70C0A00200C02002008000020AD
:100E0000000000200400002070B50B4E0446602254
:100E10000021304604F040FFFFF7AAFD21460546B9
:100E20003046FFF7C1FE04462846FFF7B1FDFFF745
:100E3000A7FD204670BD00BF0C1600202DE9F34130
:100E400006460C4617461D460BB9002628E01846F4
:100E500004F088FB0028F8D16946FFF769FD009887
:100E600038B90124009804F02CFE204602B0BDE8F9
:100E7000F08101A904F0ADFA0028F2D1009804F045
:100E800020FE3046019904F06FFC736A5E686B794E
:100E9000012B21D1002CD8D12B68834298BF00268A
:100EA0002146002004F0BAF96946C0B200F036FECF
:100EB0000028D6D120233A463146009804F002FE9D
:100EC00004460028CDD1002DCCD03C680D4BE41A4F
:100ED00018BF4FF0FF34C5E7022BB6D12B68012BAA
:100EE00005D98342B1D8B4FA84F46409ADE7ACD132
:100EF000002CD5D0012CA8D12C79023C18BF01249C
:100F0000A3E700BF3DB8F39673B54B681446114A8A
:100F100003F0FF23934206460D4618D10B68012BC0
:100F200015D16946204602F033FD9DF80030032BB1
:100F30000DD12146304604F056FB204605F086FAD6
:100F40002046A96804F05BFA204602F001FD02B0D9
:100F500070BD00BF000100042DE9F04F054689B0C7
:100F60000C46114604F000FC6B6A039020465E6854
:100F700004F0F8FA90B1E86D04F00EFA0022AB6AC2
:100F8000013B3244904201D9013BFAE7039A9A426D
:100F900004D30123E37109B0BDE8F08F06A9022054
:100FA00000F0BCFD07A9082000F0B8FD2146284646
:100FB000079AFFF7A9FF6379012B4BD1039FDFF855
:100FC00058B141E022680399C2F101030B449F42EA
:100FD00039D86B6A012A196853F8370003EBC70345
:100FE00053F8083CA0EB0109A3EB010A11D1079BC0
:100FF0000493E368022B08D04146284604F0F3FA34
:1010000022464146284604F024FB2846049904F071
:10101000EAFA32464946404604F0E3FA534642466D
:1010200041462846CDE90096FFF77CFD214628463B
:1010300004F0A5FA23680133236020B1DBF8003007
:101040000133CBF80030013FDDF81880002FB9D113
:1010500001232360022301276371039BDDF81890AD
:10106000BB4206D2484604F02CFD079804F029FD47
:1010700091E723689F424DD36A6AFB0052F837100C
:10108000083BD2F800B00491D1582A6DDDF81CA0BD
:10109000D0581368A0EB03082379012B38D1A1EBBA
:1010A0000B0132464846059104F09BFA05994346E8
:1010B0004A460091284651460196FFF733FD2146E6
:1010C000284604F05CFA0223237118B1124A13680F
:1010D0000133136032464146504604F082FA049BC5
:1010E0005246A3EB0B0349462846CDE90086FFF79D
:1010F00019FD2146284604F042FA23680133236093
:101100000123237130B1044A13680133136001E0F5
:10111000022BDFD00137A0E76C160020BFF36F8FE2
:1011200072B600234FF0FF30094A03F1200101336A
:10113000102B42F82100F8D100234FF0FF30044A71
:1011400003F160010133102B42F82100F8D1704700
:1011500000E100E038B501224FF0FF3400251A4BC2
:1011600029465A60C3F84843C3F8084303F580533F
:101170005A60C3F84843C3F80843A3F55043C3F883
:1011800000558022C3F80843104804F085FD8022F2
:1011900029460F4804F080FD0E4B8022C3F800550D
:1011A0002946C3F808430C4804F076FD80222946FE
:1011B0000A4804F071FD0A4BC3F808454FF050236C
:1011C000C3F8084338BD00BF004001508080005084
:1011D000808100500090005080900050809100501D
:1011E000007001502DE9F043079D15B915600020EE
:1011F00012E00324B5FBF4F404EB4407BD4218BF2E
:101200000134B4F1804F09D2A40001348C4200D8DB
:1012100038B96FF00B001460BDE8F0834FF0FF3475
:10122000F7E704460021DFF8B4E0B94203F1030C0C
:1012300004F104062BD3A942274623D201F1010C65
:10124000AC451F7828BF002324494FEAA70E38BFBA
:101250005B7811F80EE0AC4584F800E001EB131E5A
:101260002EBF3D239B0003F03C034FEA071738BF16
:10127000CB5C07F030071EF80770A3703D23677042
:101280003746E3700023381A10603B70AFE71CF854
:10129000034C1CF8023C4FEAA4091EF809902401F3
:1012A0001CF8018C04F0300406F8049C0EEB1319B2
:1012B00019F804409B0006F8034C03F03C030EEBC6
:1012C0009814E35C08F03F0806F8023C1EF808306A
:1012D000344606F8013C03316346A6E76E8B0000F6
:1012E0002DE9F04300273C463D46DDF81CE0DFF8E1
:1012F000288175451FD3E4BB00201460BDE8F0834E
:101300000136764533D013F806C0BCF1200FF7D074
:10131000AEEB0609B9F1010FA6EB05050DD0BCF146
:101320000D0F0AD103EB060999F80190B9F10A0FE4
:101330006ED1751CDDE72E46E3E7BCF10A0FF8D04D
:101340002DB9BCF13D0F05D10137022F0DD96FF03A
:101350001500D3E71CF0800FF9D118F80C507F2D41
:10136000F5D03F2D01D8002FF1D10134E1E735460A
:10137000C1E74FF0060C04F00706E4080CFB06F684
:101380000CFB04F40736E41B04EBD60470B18C426A
:101390000CD80027014603263C46DFF87CE0DFF846
:1013A0007C801D449D4205D10C1AA5E76FF00B000F
:1013B0001460A3E713F8019BA9F10A0C5FFA8CFCF7
:1013C000BCF1160F04D848FA0CFC1CF0010FE9D050
:1013D0001EF809C00134BCF1400F08BF013E0CF0FB
:1013E0003F0C042C4CEA8717DCD17EB13C0C012E5B
:1013F0000C7002D101310024D4E7022E4FEA1724E9
:101400004C7016BF8F7002310331F4E73446C9E7E0
:10141000002DA2D09BE700BFEE8A0000F6FFBFFFC1
:10142000014B1B68184700BF0C00002007B50B4696
:10143000002102460091034800F014F903B05DF862
:1014400004FB00BF211400002DE9F047058B044682
:101450002807904611D4022905F0070540F0CD80F9
:10146000204604F040FA78B10138218B042811D8C5
:10147000DFE800F0C3106D85950001290CBF45F031
:10148000100545F02005258388F31188BFF36F8F81
:10149000BDE8F08701F0070AAA4500F0A680002702
:1014A000B9463E46A368002B00F0BD8041F008011C
:1014B000218388F31188BFF36F8FA168002900F0A2
:1014C000BB800D68002900F0B780334652462046A5
:1014D000D1F80480C047002D76D02B6829461D46E0
:1014E000F0E701F007035A1F012A1BD8002221F060
:1014F0000701062B276889B2C4E9002209D13B46BF
:1015000003E0628B013262831B68002BF9D141F04A
:1015100002012046218304F0E6F900287BD041F047
:10152000200177E0042B0AD121F0070189B220467F
:10153000218304F0D8F910B141F020012183218BDF
:1015400001F0070AAA4550D00027B946AAE7236947
:1015500021F0070141F00601062DD3F80090218308
:101560002DD1B9F1000F40D041F00801218388F35B
:101570001188BFF36F8F20463949C84729E021F011
:101580000701236941F0040189B2042DD3F80490C6
:101590002183E6D000274FF0040A3E4682E721F07F
:1015A0000701236941F0050189B2052DD3F80890A0
:1015B0002183D6D000274FF0050A3E4672E7002768
:1015C0004FF0060A3E466DE72B4687E7B9F1000F5C
:1015D000D1D14FF02003EFF3118883F31288BFF3CA
:1015E0006F8F238B23F008032383258BEA062ED5E8
:1015F00025F01003238305F007056669218B002E73
:10160000BFF66FAF00232768C4E9003321F007015C
:1016100041F001012183218B4FF0000901F0070AFD
:10162000AA457FF43FAF002F9BD041F008012183F2
:1016300088F31188BFF36F8F002FC7D03D683946FC
:1016400033465246204604F07AF92F46F4E7AB06BB
:101650007FF51AAF25F02003238305F00705FFE689
:101660006B5900002DE9F04F82464FF000098DB014
:101670001D46531E01910393039B58785C1C25283B
:1016800019D100204FF0FF381E464446034602366B
:10169000029031780396392955D81F2914D800298A
:1016A00000F0F18101992520D04701993078D04789
:1016B00009F10209E0E7002800F0E5810199D0472F
:1016C00009F101090394D7E7A1F12002192AE9D809
:1016D00001A757F822F000BF41170000A51600002F
:1016E000A516000041170000A5160000C117000054
:1016F000A5160000A5160000A5160000A5160000FE
:101700000D18000041170000A51600002118000068
:10171000CD170000A5160000DB170000FB17000026
:10172000FB170000FB170000FB170000FB17000071
:10173000FB170000FB170000FB170000FB17000061
:1017400008460136A5E7582900F0EE80A1F16302B2
:10175000D7B2172FA6D8172AA4D801A757F822F076
:10176000CF19000047180000A5160000A5160000BC
:10177000A51600002718000047180000A516000055
:10178000A516000027180000A5160000A5160000E9
:10179000A516000003190000A5160000A5160000FC
:1017A000A3190000A516000047180000A5160000A8
:1017B000A516000003190000A51600002718000058
:1017C00025200199D04709F1010955E7029A4FF008
:1017D000000802F0FE020292B3E7002C0DDAB8F125
:1017E000000F0DDA029A002A00F045810A2224EA4D
:1017F000E47402FB0414303CA3E7B8F1000FF5DBFE
:101800000A2202FB0812A2F130089AE7B8F1000F91
:1018100055F8042B80F23181002A80F23081544245
:10182000022202928DE7682903D1682B06D1482352
:1018300087E76C2902D16C2B00F02381002B7FF409
:1018400031AF0B467DE77A2B06D1752955F8046B2D
:1018500014D14FF0000B0CE06C2BF6D04C2BF4D1D4
:10186000073525F00703752903F10805D3E9006B57
:1018700006D120283ED1864F013C09E04FEAE67BA5
:10188000BBF1000FF5DA7642824F6BEB4B0B013C5C
:101890000DF12D03059300230493304659460A2287
:1018A0000023FEF74FFC049B303203F1FF3CCDF8E0
:1018B00010C0DDF814C00CF8012DCDF814C0B446EA
:1018C0005A46BCF10A0F72F1000206468B46E4D27A
:1018D000C3F1010B30330DEB0306B8F1000FA6F195
:1018E00004066DDA029BD9077CD4A8EB0B03A4EBAA
:1018F0000B0413E02B280ABF674F684F04F1FF3435
:10190000C6E770290FD155F8042B0023FAB96FF000
:1019100004034FF0050B624E053C604F029A92079C
:101920006FD4A04665E078216C2B03D1002355F8D5
:10193000042B08E04C2BF9D1073525F007031D4691
:101940005B6855F8082B232825D1880621D5554FEB
:10195000023C002601F06001A1F1390B0DF12D0EC2
:1019600002F00F01092988BF594430310EF8011DDA
:10197000102A4FEA121141EA03714FEA131073F172
:10198000000306F1FF3C08D2C6F1010B06F130035B
:10199000A1E7454FDCE7414FDBE766460A460346D1
:1019A000DEE755F8046B304604F03DF9B8F1000F5E
:1019B000834602DB4045A8BFC3464FF00008374FBF
:1019C000A8EB0B03002B92DDA4EB0804A6E755F867
:1019D000043B4FF0010B8DF81830013C4FF0FF3302
:1019E00006AE9AE7A046EBE7029320200199D04784
:1019F000029BB8F10108F7D524EAE472013C914456
:101A0000A41AB84606E0049302920199D047029ABC
:101A1000049B9046424612F8010B0028F3D11A4667
:101A2000013A15D5002BACBFC7EB03077F425B46DD
:101A3000013B15D5BBF1000FA8BF5F4426464F44BC
:101A4000013E14D5002CA8BF3F1907EB080913E687
:101A50000493029230200199D047049B029ADFE759
:101A60000293019916F8010BD047029BE0E7019918
:101A70002020D047E4E70122D3E6904661E61446F1
:101A80005FE64C235DE648460DB0BDE8F08F00BF31
:101A9000C18B0000BF8B0000C38B0000448D000091
:101AA000CB8B0000C58B0000C88B0000044608B536
:101AB0004FF02002EFF3118382F31288BFF36F8F90
:101AC00001F02EFF204601F01BF8034803F0FEFE54
:101AD00000F0D4FDFCE700BFD18B00004FF02002E6
:101AE000EFF3118382F31288BFF36F8F0121044A51
:101AF000C2F8401583F31188BFF36F8F0020704741
:101B00000090035020B1034B800143F001031847BC
:101B1000704700BFE085000002F052BB70B5114B6A
:101B20000D461C68DCB1104B196800238B4202DBA8
:101B30006FF0010070BD224612F8106B864202D091
:101B400014460133F2E7E06810B96FF01200F1E7D4
:101B500006F065FB0028F8D000202C60EAE76FF063
:101B60000C00E7E7100000200086000070B588B088
:101B700005460C46C0B269461646FFF7CFFF00285F
:101B80001BDB0098C8B14368226802938368019503
:101B9000CDE903360023CDE906230593C56803F09C
:101BA00090FF6DB12846084901AA04F09AF90798F8
:101BB00008B9059B236008B070BD6FF01500FAE707
:101BC0006FF01200F7E700BF5D5B0000014803F013
:101BD000A7B900BFD4860000F7B5224E30688368ED
:101BE0005B6C03B19847306883685B6B002B31D125
:101BF0001D4C1E4D306883689B69002B2DD001223F
:101C00000DF107019847012827D1236843B92B68B4
:101C10001BB369681A688B422A6008BF6A60236038
:101C2000134A9DF8070011887F2904D823684F1CA8
:101C30000B44178018720A28DCD100202368118811
:101C4000186059600B494D684DB9C1E900331080E7
:101C50002060CEE798470028CAD103B0F0BD2B60C2
:101C60004B60F4E7C81A0020701600208016002090
:101C7000D81B00207816002010B5044B04461868C5
:101C80008368E1B25B689847204610BDC81A0020FF
:101C9000F8B50546164608464FF02003EFF31187C6
:101CA00083F31288BFF36F8F1B490B684BB11B4C3A
:101CB00062689A4205D000221A60626862B9C4E97B
:101CC0000033174A136853B987F31188BFF36F8F36
:101CD00018460B603360F8BD13606360F1E7D2F81B
:101CE00004C01C686345146008BF546087F3118802
:101CF000BFF36F8F5C680B60A042D8BF00F1FF3468
:101D000003F108012246284603F0BBFF0023601CB4
:101D10002B550123DEE700BF74160020801600203B
:101D200078160020002313B51C462049204AC1E93B
:101D30000033C2E900331F4A4868146020BBC1E980
:101D400000220133082B02F18802F5D11A4C1B48FE
:101D5000206006F064FA28B32068836823B19B6C86
:101D600013B1002216499847206883685B6B0BB15A
:101D7000984760B1206883689B69002BFAD00122E4
:101D80000DF107019847F4E702604A60D9E70022A5
:101D90000C4B20681A8083689B6A03B19847002027
:101DA00002B010BD4FF0FF30FAE700BF80160020F0
:101DB0007816002088160020C81A0020148300001E
:101DC000D91B0000D81B002041F204432DE9F04349
:101DD000EDB0ADF8083040F606130025ADF80C3034
:101DE000DFF80491414BD9F800101B68404E0822DF
:101DF000A3EB06080B784D7001330B7098FA98F33B
:101E00004B808B8828465BBA8B8003F045FE3146B9
:101E10004246ADF8100003F03FFE02271FFA88F497
:101E200040BA04F10A035BBA0222ADF810000DF1CA
:101E3000120106A8ADF8123003F023FF0822D9F8EA
:101E400000100DF11A00ADF8127003F01AFFBDF882
:101E5000120006AB083080B231464246ADF812009F
:101E6000184403F00EFFBDF812303A461C44A0B2ED
:101E70002C4606ABADF8120004A9184403F001FF8C
:101E8000BDF81230E9213B449BB2ADF8123000930B
:101E900005AA06AB31A8FFF7A5F9059B154E164F0D
:101EA000ADF81230BDF81230A34202DC6DB0BDE8CF
:101EB000F083336802215B68A4B903A89847BDF892
:101EC000125033682D1B7C2DA8BF7C2531AA101918
:101ED00029465B6898473368012138465B682C4483
:101EE0009847DFE702A8E9E7101B0020E01A00206E
:101EF000DA340020141B0020438D0000F0B50C687C
:101F0000164F85B002380D46C4F580610090144B21
:101F1000381903AA0131FFF7E3F90446D0B92B6859
:101F2000039A1344022B2B6011D93E88023B76BAE8
:101F3000B6B29E420BD13246B91C03F0ADFD30B9AA
:101F4000022E04D92B689A1E2A60FC5401242046D4
:101F500005B0F0BD4FF0FF34F9E700BF7B3500203E
:101F60007E39002007B5CDE900016946024806F038
:101F700042F903B05DF804FBE01A002038B50546CD
:101F80000A4C0A21204606F03DF902210848FFF7D5
:101F9000E9FF2946204606F015F920460A2106F0F9
:101FA00039F9BDE83840FFF70FBF00BFE01A002045
:101FB0000D8C0000002307B5054A0093022102F1B1
:101FC000A003044806F028F903B05DF804FB00BF45
:101FD000DA340020E01A00202DE9F04707290446F2
:101FE000B8B040F2BF80037813F0FD0640F0BA802D
:101FF0004388A1F108055BBA9BB2AB42C0F0B28046
:102000007E4B186083885BBA8380FFF7D3FFA0887C
:10201000012840F0EF81E77947B1012F00F0C2803D
:10202000082038B0BDE8F047FFF7A8BF0146744864
:1020300006F0E8F806217348FFF794FF0521704881
:1020400006F0DCF83D46DFF8C081704FDFF8C09144
:102050002946002003F0E2F808A9C0B2FFF75EFDB0
:102060000446002873D12023014610AA089803F0E3
:1020700029FD109B3E68434513D1FEF779FC4023B0
:10208000019328AB82462146009310AA089B204664
:10209000CDE903440294FEF741FA06465046FEF7A6
:1020A00077FC0023089C009322464FF6FF7310A98B
:1020B0000AA803F0D7F8002859D04FF0FF34089849
:1020C00003F0FFFCD9F80030B34240D114214C4852
:1020D00006F098F804214F48FFF744FF2946484886
:1020E00006F07AF85CB904214B48FFF73BFF18ABC8
:1020F0000A93202342480AA90B9306F079F8072196
:102100004648FFF72FFFBDF85630402101939DF858
:102110005530434A009328A89DF8543000F03AFD0A
:10212000169B4BB1421E3E2A06D828ACC0F1400196
:102130003C4A204400F02EFD28A803F074FD01461F
:1021400028A8FFF70FFF14212D4806F063F865B1AA
:1021500005212B4806F05AF80121294806F05AF8C3
:10216000FFF732FE38B0BDE8F087012570E70DF1CA
:102170001E0307AA09A90AA803F0C2F800289CD1E7
:10218000BDF81E30102BF2D1BDF81C30202B94D19D
:102190002046099918AA03F095FC041E18BF0124D3
:1021A00064428CE7294610AB18AA04F108000A968D
:1021B00000F01EFA00283DD003240A21104806F042
:1021C00021F802211848FFF7CDFE21460C4805F002
:1021D000F9FF44B903211548FFF7C4FE144B084822
:1021E000196805F0F9FF0A21054806F013F8FFF712
:1021F000EBFD0A9803F065FCB4E700BF101B00205C
:10220000E01A0020108C00003DB8F3960400002076
:1022100008000020178C00001C8C0000218C00009E
:10222000298C0000358C00000D8C0000388C0000DB
:10223000DC1A0020109B9D42BED14FF0FF350246B4
:102240002C4680460746279E18ABB2425AD1631CE3
:10225000B2D0002FB0D0002102F0E0FF0AA9C0B236
:10226000FFF75CFC0028A7D16D4E002C5CD1DDF897
:10227000289034604846D9F808A003F09FF8694ACE
:102280000146484602F0D5FF002840F0B180AA453B
:1022900092D3654B1C60654B1D603268624C013AFD
:1022A00021680A98424403F08EFC0028206083DBFA
:1022B0000A9803F045FCB8FBF0F303FB1080336889
:1022C000C5B24344A8EB0505DFF86081D8F80020CB
:1022D000934238BF00205FFA80F90A9803F030FC7F
:1022E000012805D90A9803F02BFC013807425FD179
:1022F0002B463A4631680A9803F0F9FB00287FF430
:102300005BAF42E0197A032904D8DFE801F0020646
:10231000090B186801320C3397E7D3E90078F9E725
:102320001D68F7E71C68F5E73368A34201D0002475
:1023300043E73E4B44441B689C42AED93CE7AA4568
:102340000A9888BF5FFA85FA03F001FC4022014633
:1023500028A803F0A1FC5246394628A803F091FCB6
:10236000534631680A9828AA03F0C1FB04460028A6
:102370007FF423AF3368574453443360A5EB0A0519
:102380000A9803F0DDFB8542D9D2B9F1000F12D1D2
:102390003368D8F800204B442B4493423360C6D1B5
:1023A000204B0A981A68114603F00DFCC40F04E78D
:1023B0004FF0400AE4E70A9803F0C9FB08220146FF
:1023C00028A803F069FC4A46791928A803F059FCAB
:1023D0000A9F316838466C1803F0B2FB2146034669
:1023E00028AA384603F083FB00287FF4E5AECFE748
:1023F0000124E2E600287FF413AEE379012B3FF4D9
:1024000010AE052B03D0002B7FF40AAEAAE6FFF72F
:10241000B5FD074805F028FF0120FFF747FB00BF87
:10242000DC1A0020D41A0020D01A0020CC1A002078
:1024300090D0030001232DE9F34100240646DFF884
:10244000A080284D88F80030274B284F0094186052
:1024500098F8003013B902B0BDE8F08100F00EF931
:10246000234BC4F58061C3F80056C3F80456C3F883
:102470000856C3F80C56C3F81056C3F81456C3F8E0
:102480001856C3F81C56336801AA01313819984709
:102490000028019B01DC002BDAD004442BB940F268
:1024A00001439C42D4D10024D2E73B78062B09D1CA
:1024B0007B78092B0BD1002300936946A01EFFF700
:1024C0001DFD04E0042B02D17B78142BF5D00128EC
:1024D000E9D1009907480239FFF77EFDE3E700BF25
:1024E0007A3500203546526E141B00207C390020BE
:1024F000008001507D35002073B504460D4605F07F
:1025000026FC002868D0354B6946009305232046F9
:10251000019305F087FD60B12946204605F07CFD5A
:1025200038B100232B72204605F018FC012002B0C0
:1025300070BD204605F00EFC78B1294B694600932A
:1025400004232046019305F06DFD30B12946204655
:1025500005F065FD08B10123E4E7204605F0FAFB2C
:1025600078B1204B6946009303232046019305F080
:1025700059FD30B12946204605F04EFD08B1022331
:10258000D0E7204605F0E6FB78B10326164B6946F6
:1025900020460093019605F045FD30B129462046BE
:1025A00005F03AFD08B12E72BDE7204605F0D2FBDA
:1025B00078B10E4B6946009303232046019305F042
:1025C00031FD30B12946204605F029FD08B104232C
:1025D000A8E7204605F0C2FB0020A8E73C8C0000DD
:1025E000428C0000478C0000388C00004B8C0000AF
:1025F0002DE9F0434FF001099DB004AC07460E46AB
:1026000090461D4602460B4620460421CDF8009018
:1026100005F0A8FB204605F008FD70B10C2305214C
:10262000CDE901834846114B009408F13C0205F0C6
:102630001DFD60B9204605F014FD0022099BD868F5
:10264000DA60904208BF1F201DB0BDE8F08320462D
:1026500005F005FD0028F0D00DB90020F4E7049B3B
:10266000DB1BB34294BF2B602E60F6E7F924000019
:10267000014910220A60704710ED00E072B6404038
:1026800080F31188BFF36F8FBFF34F8F30BF62B6F7
:10269000BFF36F8F704700BF72B6494081F3118856
:1026A000BFF34F8F20BF80F3118862B6704700BF21
:1026B00040B2002807DB01234109034A00F01F0054
:1026C000834042F82130704700E100E040B200282A
:1026D0000CDB01220649430900F01F008240203331
:1026E00041F82320BFF34F8FBFF36F8F704700BFB8
:1026F00000E100E0054B420953F82220012300F0DD
:102700001F0003FA00F01040704700BF00E100E036
:1027100040B2002801F10101ACBF00F16040064B5E
:102720004FEA4111C9B2ABBF00F5614000F00F00A4
:1027300080F800131954704714ED00E030BFFFF724
:10274000FDBF00BF0B4A08B50B4B22F07F029A6019
:10275000BFF34F8FBFF36F8FD3F8882022F470023E
:10276000C3F8882002F082FA02F0C4FA00F08CF973
:1027700002F088FA0000000000ED00E01EF0040FF7
:102780000CBFEFF30880EFF30980816911F8021C98
:102790000229FFD001B503F037FA01BD044608460F
:1027A00011461A46002383F30B880A4B2025A3F514
:1027B000205686F30B8883F3098863B64FF0000335
:1027C00083F31188BFF36F8FA04785F31188BFF3A0
:1027D0006F8FFEE7C86D002001B5EFF30580A0F113
:1027E00010004FEAC0000449014409C99847BDE8F8
:1027F000014002490847000044830000012800000E
:10280000704700BF154B9A6A12F0007F9A6A14BF96
:102810001E201D2012F0807F9A6A18BF1F2012F41C
:10282000801F9A6A18BF022012F4002F9A6A18BFFC
:10283000212012F4802F9A6A18BF222012F4003F40
:102840009A6A18BF232012F4803F9A6A18BF242086
:102850006FEA02426FEA12429A62704700ED00E0AE
:1028600010B5194B0246986A9C6A10F4805F14BF39
:102870001720162014F4006F9C6A18BF1820A405B6
:1028800009D5986B986A000404D51AB19A6A22F4A3
:1028900000429A6219200C4B9A6A12F4806F9A6A6D
:1028A00018BF1A20D2050CD49B6A13F4005F18BF1E
:1028B0001C20054A936A43F47F43936200230B7004
:1028C00010BD1B20F5E700BF00ED00E010B51C4B6C
:1028D0000246986A9C6A10F0100F14BF1120102055
:1028E00014F0080F9C6A18BF1220A40709D5586B72
:1028F000986A000604D51AB19A6A22F080029A6298
:1029000013200F4B9A6A12F0010F9A6A18BF142015
:1029100012F0200F9A6A18BF1520D40658BF9B6A80
:10292000074B9A6A920642BF5A6A22F400525A62D0
:102930009A6A42F0FF029A6200230B7010BD00BF3A
:1029400000ED00E070B5444B06465B6800258AB098
:10295000C3F3080385F31188BFF36F8F02F07F4044
:10296000B0F17F4F11D102F00C0008280DD01007F4
:102970004CBF0E4601250022033B8DF80720032B98
:1029800005D8DFE803F01E5C60592E46F3E700240B
:102990009DF807309BB92022314602A803F071F957
:1029A000099B002D53D0C3F3080222B96FEA5323C9
:1029B0006FEA43230993204602A903F023F90AB0E2
:1029C00070BD254BDA6A9107E1D4DA6A002ADEDBB2
:1029D000DA6A5200DBD55A69B16942F480725A61F1
:1029E000BFF34F8FBFF36F8F5A6931F8021C22F487
:1029F00080725A61BFF34F8FBFF36F8F4DF6027233
:102A0000914209D09A6AD2B242B101200DF1070178
:102A1000FFF75CFF0446BBE73468B9E79A6A12F433
:102A20007F4F05D001200DF10701FFF719FFF1E7F6
:102A30009B6AB3F5803FAAD3FFF7E4FEEAE70020E4
:102A40000DF10701E4E700200DF10701EDE723F4A4
:102A5000FF7323F00103ADE700ED00E0044B5A697A
:102A600042F010025A615A6942F480625A6170471A
:102A700000ED00E0EFF30880EFF3098101B5724645
:102A8000FFF760FF01BD00BF002320210348C218EB
:102A90000133412B82F80013F9D1704700E100E0C7
:102AA000002080F31488BFF36F8F002080F30A8822
:102AB00080F30B88FFF730F800200E490860BFF361
:102AC0004F8F0D4880F3088800F03EF8202080F3F7
:102AD00011880A484FF40061401880F30988EFF329
:102AE00014800221084380F31488BFF36F8FFFF72F
:102AF00029FE000094ED00E0C86D0020C83D0020D4
:102B0000BFF34F8F0549064BCA6802F4E0621343D6
:102B1000CB60BFF34F8F00BFFDE700BF00ED00E0CB
:102B20000400FA05002318460649D1F89020C2F3A4
:102B30000722934200DB7047C1F89830C1F8A0002B
:102B40000133F6E700ED00E010B572B6002484F31F
:102B50001388FFF7E7FF23464FF0FF300C4A03F1DD
:102B600020010133102B42F82100F8D100234FF04F
:102B7000FF30074A03F160010133102B42F82100B6
:102B8000F8D162B6BFF34F8FBFF36F8F10BD00BF98
:102B900000E100E00CB410B586B009B90DF10B00EE
:102BA0000024CDE9040109AB089A009404A9054862
:102BB0000393FEF757FD049B1C7006B0BDE8104060
:102BC00002B07047AB5C0000084B70B5C31A0D46ED
:102BD00007499B10044659434022064803F08EF8EB
:102BE0002B4601462046BDE8704018472C1B0020AC
:102BF000B76DDBB6CC820000402373B50B4C00935D
:102C0000041B0B460D460A49A41061430646094AB7
:102C1000094803F09FF8011E05DA30462B4602B042
:102C2000BDE87040184702B070BD00BF2C1B0020EB
:102C3000B76DDBB6C55D0000CC82000010B54FF06B
:102C40002003EFF3118483F31288BFF36F8F074AD9
:102C5000136823F00201DB07116002D4012005F0A4
:102C600018F884F31188BFF36F8F10BD7C1B002010
:102C700070B50022012104460520FFF749FD0F48E9
:102C800001F098FB0E4B984215D104F0B4FF266971
:102C90000C49304602F077FE00280BDB0125356435
:102CA0002469084904F11C0002F06DFE002801DBD4
:102CB0000020E56470BD6FF00400FBE7FD2C000010
:102CC0000000AD0BDC86000001460C2300224B43C4
:102CD00070B50848C41840331844D4E90E56A263AE
:102CE00002F0F9FF2DB132462B46BDE87040024894
:102CF000184770BD2C1B0020CC82000010B10128A9
:102D000004D07047034B1B6C5B0701D1FFF7DCBF9E
:102D1000704700BF2C1B002008B54FF02003EFF3D5
:102D2000118183F31288BFF36F8F124A136843F047
:102D300002001060DA0708D481F31188BFF36F8FA7
:102D4000BDE80840012004F064BF4FF05023D3F8E1
:102D50000C24D3F80C34D307EED5074802F0BBFFA0
:102D600081F31188BFF36F8FBDE808400020FFF7A3
:102D7000ABBF00BF7C1B00206C1B00202DE9F8437B
:102D8000012207463449D1E8EF3FC1E8E02F00288F
:102D9000F9D133B9314932484B60CB608A6002F0D7
:102DA00005FE7B1E012B2DD8012F07D14FF050239C
:102DB000D3F81C3403F00303022B23D005F04EFAA2
:102DC000054608BB274B1B78F3B14FF05023022276
:102DD0000646C3F808234FF050244FF00008DFF8F0
:102DE0008890D4F81834D4F81824D20316D503F0F8
:102DF0000303022B01D0012F10D13DB386F31188BC
:102E0000BFF36F8FBDE8F8834FF02003EFF3118617
:102E100083F31288BFF36F8F0125DCE73046FFF79D
:102E20003BFCD4F81835DBB2012BDAD1D4F80421FD
:102E3000002AD6D0C4F80481D4F804210222C4F8B0
:102E400018252022C9F88021A360CAE74FF050233B
:102E50000222C3F80423D5E7281B0020181B0020FA
:102E6000481B0020C13D002000E100E0024B0B6048
:102E700001231360704700BF801B0020004870478B
:102E80003087000010B504F00CFF034C206004F004
:102E900005FF6060002010BD801B0020F8B50E46C5
:102EA0001946304617461D4602F09BFFB8B146EA68
:102EB000050414F0030412D14DB12B19032BA6EB1A
:102EC000040006D8074AD2F80034DB07FBD50020FF
:102ED000F8BD3B1B196801F029FE043CEDE76FF0DB
:102EE0001500F5E70090035030B5406801F01F046D
:102EF000057BB2F5001F85B044EA451405D1204694
:102F000001F0ECFC002005B030BD0025B2F5800FCB
:102F1000CDE9025514D1B3F1007F0CBF0423052382
:102F20008DF8083000232046194602AA01F00CFB58
:102F30001C4B984233D10121204601F08BFCE1E784
:102F4000B3F1C06F20D0B3F1007F14BF012302237F
:102F50008DF808308368CB40D907E3D4B2F1A07F65
:102F6000E0D1114A04F01F03803352F82330DB070D
:102F7000D8D40DF107052946204601F017FC0B4B6C
:102F8000984203D00395CDE70323E1E7284601F0FB
:102F90005BFC044B9842F5D06FF00B00B3E76FF089
:102FA0001500B0E70000AD0B002584500400AD0B08
:102FB00010B501F039FC044668B901F00DFC084B6E
:102FC00098420AD12146074801F0EAFB2246052132
:102FD0000D20FFF79DFB002010BD6FF00400FBE704
:102FE0000000AD0BE92F0000430970B507D10B4B72
:102FF000596821B101250C68094E854001B970BDA1
:103000008A682A4002D030464B6898471CB1236832
:1030100021461C46F2E72346FAE700BF881B002042
:10302000E48200002DE9FF41476801F01F053B7B6A
:10303000144645EA43150E4628460DF1030101F0FA
:10304000B5FB14F4403F80460BD1284601F06EFCDE
:103050003C4B984503D19DF8030001F0EFFB0020A5
:103060000CE000232846194602AACDE9023301F0FC
:103070006BFA344B984204D06FF0150004B0BDE8F1
:10308000F081804503D19DF8030001F0D7FBA30335
:1030900049D540F206332340B3F5837F19D00CD8CD
:1030A000062B17D004D8ABB1022BE5D1042311E0D5
:1030B000B3F5807FE0D101230CE040F2022293427D
:1030C00026D0B3F5407F25D0B3F5007FD4D10223BD
:1030D00000E007238DF8043084F48033C3F3004309
:1030E000E0068DF805304CBF0323C4F340132103E1
:1030F0008DF8063010D501237A68B3409360002222
:10310000284601A901F0CCFA0E4B9842A7D0B3E7AC
:103110000523DFE70323DDE7620341BF01237A686C
:10312000B340D360EBE7E3064FF000034CBF03244A
:10313000C4F340141A46284601A98DF8044001F052
:1031400003FAE1E70000AD0B2DE9F04101273F4E06
:1031500000EB8101814202D10020BDE8F0810568C9
:1031600005F07F03C5F343247F2B4FEA154508BFC5
:103170004FF0FF33192D66D8DFE805F00D161B1E42
:10318000212D1E65656565315165656565656565FA
:103190006565545C5F62C2F80C3503F01F0507FAE1
:1031A00005F5B560012502E0C2F814350025AC46EE
:1031B0001CE0C2F80835F0E7C2F81035F6E7002544
:1031C000C2F8083503F01F0C07FA0CFCC6F80CC057
:1031D0004FF0010C0AE0C2F80C350125F2E7C2F805
:1031E0000835002CE2D100250624AC4650F804EB4B
:1031F00024020EF40058B8F1000F1CBF4FF0000C71
:103200000125CEF3C11E44EA8E0403F01F0344EAF5
:103210000C0444EA4504803346F823409AE7C2F898
:103220000C35DEE7C2F860350568C5F38035002D42
:10323000D3D0B2E7C2F86435F6E7C2F86835F3E7F1
:10324000C2F86C35F0E76FF0850086E70025845002
:10325000F8B504460D46076905F000F890B91F4B14
:103260001B787BB16426606802F096FFE0B901200C
:1032700004F065FC013EF6D1F4E781F31188BFF359
:103280006F8FEFE74FF02003EFF3118183F3128884
:10329000BFF36F8F60680E4602F07EFF90B981F336
:1032A0001188BFF36F8FEDE74FF02003EFF311812B
:1032B00083F31288BFF36F8F60680E4602F06CFFD5
:1032C0000028DAD07B6901221D702046796902F05E
:1032D000A3FE86F31188BFF36F8FF8BDC13D0020B8
:1032E000F0B54B79012B26D0032B21D110258B79FA
:1032F000032B1DD1CE790EB1012E19D10A7912B14D
:10330000022A15D10E220B684468B3F5164F2768C0
:1033100067D02DD8B3F5165F66D016D8B3F5966F83
:1033200064D00AD8B3F5967F63D0B3F5167F63D027
:103330006FF0850054E00025D9E7B3F5166F5ED035
:10334000B3F5965FF4D1384B3CE0B3F5E14F59D07B
:1033500007D8B3F5615F57D0B3F5964FE8D1334B3B
:1033600030E047F61224A342E2D14FF4000329E0F3
:10337000B3F5613F4AD013D8B3F5963F49D009D889
:103380004DF6C024A34246D0B3F5614FD0D14FF4DF
:103390006B0317E0B3F5E13FCAD14FF0EB7311E0D7
:1033A000B3F5612F3AD008D8214CA34239D0B3F5F8
:1033B000E12FBDD14FF0E86304E01E4CA342B7D12A
:1033C0004FF080530469C7F82435436835431B68C0
:1033D0002A43C3F86C25231D03C983E8030000209A
:1033E000F0BD4FF41D03EDE7134BEBE74FF49E23C5
:1033F000E8E74FF4A033E5E74FF41C33E2E74FF47E
:103400001D23DFE70D4BDDE70D4BDBE74FF06C7362
:10341000D8E70C4BD6E74FF46503D3E74FF0706362
:10342000D0E74FF08063CDE700B0130000A04E005E
:1034300090D0030040420F000050270000C07500EC
:1034400000F03A0000903A012DE9F7430021476867
:1034500006693C688046C4F800153060D7F80C90C7
:1034600001AA484602F0B6FD051E4DDB019BD9F8C6
:10347000002019791868FFF767FE051E44DB4046F7
:10348000311DFFF72DFF054600283DD17B689907C8
:1034900013D506F11C0000F0D1FF1F4B984237D125
:1034A000337F43F00043C4F8A031C4F88C300123CB
:1034B000327F9340194AC2F804350823C4F8003516
:1034C0003B7A53B9C4F81031D4F81031B369C4F859
:1034D00034350123C4F8383523607B689A075CBF14
:1034E0004FF48073C4F804337B68DB0644BF4FF4A9
:1034F0008003C4F804337369C4F844350023C4F866
:1035000048350123A360E360284603B0BDE8F0839B
:103510006FF00405F8E700BF0000AD0B007001502C
:103520000123834070B5DC430B4AD2E8EF1F01EA68
:103530000405C2E8E65F002EF7D14FF480328240E6
:103540000648C0F80823BFF35F8FBFF36F8F0B42AD
:1035500014BF0120002070BD981B002000500150B6
:1035600070B40E4922F07F46D1E90034D01AC31856
:1035700044F10004C1E90034A6F50013B3F5400F8F
:1035800009D2074B1B681A0A1B069C19054B42F10E
:103590000005C3E9004570BC01F00CBC70010020BF
:1035A0009C1B002078010020D9B101230D4A8340E3
:1035B000D2E8EFCF4CEA030CC2E8E1CF0029F7D103
:1035C0004FF48033084A8340C2F80433074BD3E8F2
:1035D000AF3FC340DB0742BF4FF40012044BC3F8B8
:1035E00000217047981B002000500150941B0020C0
:1035F00000E100E00D4B1868010A0006BFF35F8F81
:103600000B4BD3F80435181841F10001B3F5801FB6
:103610000AD2084BD3E90023904271EB030303D293
:1036200010F1807041F10001704700BF9C1B002029
:1036300000500150780100202DE9F74F16461F4633
:103640000446FFF76DFF0090FFF7D4FFB04271EB27
:10365000070350D2384B301A67EB0101984271F1E1
:10366000000165D2354B03EB0413D3E902239F42DB
:1036700008BF964249D04FF48039314909FA04F91C
:10368000204626F07F4BC1F8489302F04BFE4FF0E6
:10369000030A584604F15005AD00ADB205F15025BE
:1036A00004F5A873274A05F580350193DDF804C0B9
:1036B00020F07F4341F82C30C1F84493D1F80485C1
:1036C000A0EB0800033820F07F4090421DD9286805
:1036D00060B1D1F80485A8EB0B0020F07F40B0F575
:1036E000000F12D9204602F01DFE164A0AEB080010
:1036F0000AF1010ADAE70123134AA340D2E8EF0FE7
:103700001843C2E8E10F0029F8D100250B490C98B5
:10371000230101EB0412C850C2E902670D9B5360FC
:1037200020460099FFF740FF284603B0BDE8F08F20
:103730006FF01505F4E700BF010080006001002074
:1037400000500150FDFF7F00941B002073B5002541
:103750004FF0FF304FF0FF31184C194B0226C4F8E0
:103760000833C4F84833174BC4F80855C3E90201BD
:103770004FF480334FF40012C4F80433124B01218C
:10378000C4F804631520C3F880212A46FEF7C0FF61
:103790001520FEF78DFF01230C4AA3602360136000
:1037A0000B4B0C4A0093284600230195FFF744FF7A
:1037B0003046FFF7E3FA284602B070BD00500150D2
:1037C00003000F006001002000E100E0981B0020D2
:1037D00061350000FFFF7F002DE9F7432E4BD3F842
:1037E000042390070BD5D3F8042142B10022C3F87B
:1037F00004212A4AD3F80431136801331360264A9E
:10380000D2F80433D90327D5254BD3E8EF1F21F095
:103810000100C3E8E40F002CF7D1CB0702D4D2F8A3
:103820004031CBB100251C4CC4F84051D4F8403194
:10383000FFF7E0FE4FF02003EFF3118283F31288CD
:10384000BFF36F8F174BD3E90267B042B94106D27D
:1038500082F31188BFF36F8F03B0BDE8F0834FF0A0
:10386000FF38D3E900104FF0FF391D60C3E902892A
:103870004FF48033C4F84833C4F84051D4F8403191
:1038800082F31188BFF36F8F0029E5D00090324694
:103890003B4628468847DFE7005001509C1B00202C
:1038A000941B002060010020431C13B521D0012887
:1038B00021DD124A124B9042D4BF04461C46FFF74A
:1038C00099FE104B0E49D3E90023801AB0F5000F82
:1038D00028BF002404448C4228BF0C4600200A491B
:1038E000A2180190009143F10003FFF7A5FE02B07A
:1038F00010BD034CE3E70124E1E700BFFEFF7F00BA
:10390000FFFF7F00700100206135000008B5FFF760
:1039100071FE024B1B68C01A08BD00BF7001002079
:10392000012310B5074C15206360FEF7CFFE4FF45E
:103930000012054BC4F80833C4F84833034BC3F8EE
:10394000802110BD0050015003000F0000E100E095
:1039500030B5816885B0103921F00704054602F0C2
:10396000F6F810220146684602F096F910226846E1
:10397000064902F086F910236A462146284602F0DD
:10398000B6F8003818BF012005B030BDC08900006E
:1039900030B50D46816887B0102302AA103904465D
:1039A00002F090F8002802DA012007B030BD1022A2
:1039B000204602A902F0E5FC00283AD110221E4957
:1039C00002A802F037F900280CBF012302232B7054
:1039D000204602F0C2FC012301460DF107022046F9
:1039E00002F070F80028DFDB9DF80730204603F076
:1039F0000F021B096A702B7101220DF1070102F001
:103A0000C0FC10B96B78042B03D901236B70002321
:103A10002B71A2682046183A22F00702083AA91C26
:103A200002F0C2FC0028BFD12046E91C02F015FDBF
:103A3000BBE70323CBE700BFC08900007FB50220AE
:103A4000694602F010FD98BB082002A902F00BFDA8
:103A500001282BD103238DF808308DF80B3000247A
:103A60009DF800509DF80860184A2946107802F029
:103A70007AFC18B33146507802F075FCF0B19378B7
:103A8000042B03D09DF80310994217D1D378042B4F
:103A900003D09DF80B10994210D11379042B09D152
:103AA0005079831E022B03D804B070BD0028D6D0F5
:103AB000FF20F9E79DF802109942F1D00134032C60
:103AC00002F10602D1D10120EEE700BFD18C000047
:103AD00001680E4A0346914215D1C169A2F1102234
:103AE000A2F1EF1291420ED18268012A0BD8C2686E
:103AF00012B101698A4206D0586928B19B691B1A24
:103B00005842584170470120704700BF55AA00FF36
:103B100070B50D4B9E68A6B13046FFF7D9FF04463D
:103B200078B9F3686BB935690DB9204670BD284680
:103B3000FFF7CEFF28B9EB68B34202D12E462D69BC
:103B4000F2E70124F1E700BFA01B00202DE9F843B4
:103B50003F4F3C68D4B1BC68C4B100284AD00029AA
:103B600048D001FB00F5B5FBF0F0884242D1281D9A
:103B700040D8A9070DD025F003060436FC6803E001
:103B80006368B34238D2A469002CF9D12046BDE85D
:103B9000F8832E46F2E7FB6041E006F1200163184E
:103BA000203A5A600022C3E902242A4822691A6195
:103BB00060502949D96102B1D36062695A61A16933
:103BC0009961AAB193619A6902B153614FF00109F9
:103BD00023610023C4E90169C4E905333B69DB07BC
:103BE0002ED5FFF795FF58B31C4B48461B6826E0BF
:103BF000FB60E8E70024C9E7A3681BB1174B01206D
:103C00001B689847626804F12008921B232AC4D8D5
:103C10000123A360D4E90523002ABCD09361A369E2
:103C20000BB162695A610023C4E905333B69DA07C5
:103C300006D5FFF76DFF18B10120084B1B689847A8
:103C40002A4600214046444602F026F89EE700BF7F
:103C5000A01B002055AA00FF669911EE7C000020F1
:103C600070B50546002800F08880444E3368002B6C
:103C700000F08380B268002A7FD0834203D8726844
:103C80001344984203D33E4B01201B689847A5F18B
:103C900020042046FFF71CFF18B1394B01201B6898
:103CA000984755F8183C012B03D0354B01201B6871
:103CB0009847002345F8183C55F8143C3BB39A68E4
:103CC0002ABB55F81C2C02F120015A680A445A609C
:103CD00055E905321A6155F8145C2B6903B1DD60B2
:103CE00020220021204601F0D7FF286910B1836807
:103CF000002B2ED033699B073FD5FFF709FF002823
:103D00003BD0BDE870401E4B01201B68184755F89A
:103D1000100C00282AD0836843BB426863681344B0
:103D20002033636003692361D4E905239AB9CBB9D1
:103D3000436963618269A261B3B19C61A36903B104
:103D40005C61236903B1DC602022002101F0A4FF43
:103D5000D0E72C46E1E79361A369002BE8D06269C4
:103D60005A61E5E7F360F7E7F460E7E7F36845F8E1
:103D7000083C03B15C61F460BCE770BDA01B00208F
:103D80007C00002038B50C4614220021054613485B
:103D900001F082FF1249134800F034F8232C1CD99B
:103DA00015F003031FBF043CE418C3F10403ED182E
:103DB00022460021284601F06FFF084B0A49C3E95B
:103DC0000054203C9D606C609A6811609A68A1F173
:103DD0001021A1F1EF11D161DA6038BDA01B0020E4
:103DE000613C00004D3B000055AA00FF014B1B68E1
:103DF000184700BF84000020014B1B68184700BF14
:103E000080000020024B1860024B002019607047B0
:103E10008400002080000020F8B500F10806476803
:103E2000044630460D4602F09CFC87424BD1636845
:103E3000B3F5807F47D80021304602F08AFD002884
:103E400041DD0021304602F078FCE0B345B9294657
:103E500004F1140002F07DFD002834DD0020F8BDDF
:103E600004F12C050021284602F073FD00282ADD0C
:103E70000021284602F061FC28B304F13805002136
:103E8000284602F066FD00281DDD0021284602F0CC
:103E900054FCC0B1002104F1140002F05AFD0028C6
:103EA00011DD002104F1440002F053FD00280ADD79
:103EB000002104F1500002F04CFD002803DD002138
:103EC00004F15C00C6E70148C9E700BF80BFFFFFFF
:103ED00070B500210446FFF79FFF054610B10E4D57
:103EE000284670BD04F10806304602F036FC7F28F3
:103EF000F5D914342946204602F01FFC0028EED0E4
:103F0000204602F02AFC0128E9D93146204602F079
:103F1000DFFC0028E4DBE2E700BEFFFFF0B50C4663
:103F200087B0002105461646FFF776FF002839D1F5
:103F300003A802F05AFB21466A6803A802F017FCA6
:103F4000044618B103A802F056FB0CE005F1080482
:103F5000214603A802F0BCFC002807DB03A802F0FE
:103F60004AFB6FF00304A4F5854418E005F16803EB
:103F700003A96F680846009305F11402234602F076
:103F8000C2FF04460028DDD13A46314603A802F0BC
:103F900004FC044603A802F02EFB002CE3D12046CB
:103FA00007B0F0BD004CFAE780BFFFFF01290346D0
:103FB0002DE9F04143D8234A002918BF9046224AF0
:103FC000224F18BF964602F1794202F5740202F5BB
:103FD000016218BF94461E4A1E4818BF17461E4A63
:103FE0001E4E18BF164602F1D14208BF804602F5A8
:103FF000C0121B4802F51E6208BF8646194D1A48BA
:1040000018BF1546194A08BF8446194C194818BFED
:104010001446A2F11162A2F50C22A2F28E2218BF60
:1040200002460020C3E9028EC3E90000C3E904C7C9
:10403000C3E90665C3E908429966BDE8F0816FF0FF
:104040007300FAE7D89E05C107D57C363AF54FA52F
:1040500039590EF767E6096A310BC0FF7F520E51DE
:1040600085AE67BB8C68059B72F36E3CA78FF964C5
:10407000ABD9831FA44FFABE2DE9F04FD1B00DF597
:104080008E7B5A46031D019300F124030393019B89
:1040900053F8040F42F8040F03989842F8D1DDE971
:1040A00048074FF000094F9B4CAD0293DDE94AE30E
:1040B0000493424B06AA059395E82011B9F10F0F1E
:1040C00063D84C780B78240444EA0364CB78234308
:1040D0008C7843EA04234FEAF52A8CEA0804059E0B
:1040E0008AEAB51A2C408AEA756A84EA0C045444B8
:1040F00056F804AB936054442344029C4FEA703A50
:10410000234440EA070405968AEAB00A04EA0E044A
:1041100000EA07068AEAB05A3443544409F1010917
:10412000DDF810A0B9F1400F9A4402F104022344D3
:1041300001F10401CDF808C0CDF810E01ED1CDE9A1
:104140000634CDE94E8CCDE94CA5CDE94A7ECDE9CA
:104150004830019A52F8043F01925BF8042F13444F
:10416000019A1360039B9342F3D106A84FF4947114
:1041700000F0DEFE002051B0BDE8F08FBE46C44620
:104180000746A8461846554698E7136852F8384C33
:104190004FEAF34A8AEA734A8AEA932A52F8143CAD
:1041A00052F8346C234452F8344C53444FEAB4442C
:1041B00084EAF61484EAD60423448CE720880000BD
:1041C0004FF47F0208B5D2F83031D2F83421BFF372
:1041D0004F8FC3F30B03092B01BF4FF05023002275
:1041E000C3F81421C3F8182103F096FC28B101226A
:1041F0004E4BC3F8382AC3F878254FF47F02D2F823
:104200003031D2F83421BFF34F8FC3F30B03092BA6
:1042100005D1012A1EBF0122444BC3F8782503F0C3
:104220007BFC18B10E22424BC3F8E42E4FF47F0200
:10423000D2F83031D2F83421BFF34F8FC3F30B03E0
:10424000092B06D10022394BC3F80C270122C3F8F1
:1042500010270022D30003F57F03D3F80013BFF328
:104260004F8F013108D0D3F800130132D3F8043353
:10427000B2F5807F0B60EDD12E4BDA69BFF34F8F23
:10428000D10745D5BFF34F8F2B4BD3F80024012A1C
:10429000FBD1C3F80425D3F80024012AFBD1254B18
:1042A000DA69BFF34F8FD2070AD5DA6922F001022B
:1042B000DA61BFF34F8F204AD2F80034012BFBD1D3
:1042C0001C4A136ABFF34F8F01330CD1136A23F0DA
:1042D000FF0343F020031362BFF34F8F164AD2F857
:1042E0000034012BFBD10022134BC3F80425D3F873
:1042F0000024012AFBD1BFF34F8F1049104BCA682D
:1043000002F4E0621343CB60BFF34F8F00BFFDE7C1
:104310001B6ABFF34F8F0133B4D0084AD2F88C30F8
:1043200043F44063C2F88C3008BD00BF0040005029
:1043300000A003500080FF000090035000ED00E05B
:104340000400FA0570B501250268B2FA82F3C3F1E0
:104350001F03DBB205FA03F422EA0404D0E8EF6F8E
:10436000964204D1C0E8EC4FBCF1000FF6D1EBD17E
:1043700001480B7070BD00BF0000AD0B10B50368A5
:10438000CB40DB0710D401238B40026843EA0201D3
:10439000D0E8EF4F944204D1C0E8EC1FBCF1000F0D
:1043A000F6D1F2D1014810BD0148FCE70000AD0B89
:1043B0000400AD0B044B1A7922B9012218601A715E
:1043C0000248704702487047B41B00200000AD0B44
:1043D0000C00AD0B4FF0502310B5D3F8002152B1B3
:1043E0000020C3F80001D3F800210122C3F80823FC
:1043F000114B1B6898474FF05023D3F804218AB122
:104400000022C3F80421D3F80421D3F81824D3F8E8
:10441000181402F00302012A4FF0020103D1C3F87D
:1044200018159A6010BDC3F80813034B0120BDE8AE
:1044300010401B68184700BFB41B0020014601480C
:10444000FFF780BF88000020064A00F01F0002EB43
:104450008002D2F8003223F4403343EA0143C2F829
:104460000032704700258450034B083033F81000A9
:10447000C0F34010704700BF8C00002070B50D4C99
:1044800000F1080334F813300546DA050E4607D567
:10449000C3F3432304EBC302526854F83330984704
:1044A000A3682BB131462846E268BDE87040184742
:1044B00070BD00BF8C00002010B4124A083032F8E2
:1044C0001030D9051BD5C3F3432123F4F85322F848
:1044D0001030002002F10E0434F8023F13F4807F04
:1044E00003D0C3F34323994209D001302028F3D1EC
:1044F000002342F83130044810BCFFF73FBF10BC26
:10450000704700BF8C000020E000002038B5024654
:10451000FFF7AAFF0B4C02F1080560B1002134F847
:1045200015305B0B9B0003F1A04303F55043C3F828
:104530001015C3F810151046FFF7BEFF002324F82E
:10454000153038BD8C0000202DE9F34104461D468E
:1045500009B34E4F00F1080837F81860B30706D5C5
:10456000FFF782FF18B14A4802B0BDE8F081494820
:1045700004F01F0300EB8300D0F80032097823F029
:104580000F0326F0020643EA810346F00106C0F855
:10459000003227F818609AB13C4E04F1080736F84B
:1045A0001710137811F0020F50680CD00028DAD1E0
:1045B00036F8172022F01C0242EA830326F817304F
:1045C000D5BB3548D0E721F02001C904C90C26F835
:1045D00017100028ECD0032BC5D8526892F800C001
:1045E0006246920002F1A04202F5504223B9C2F89D
:1045F0001035C2F81035DBE7D2F8100541EA4C312E
:1046000020F00300C2F81005D2F8100541F0200197
:1046100020F4473020F44070C2F810052002D2F890
:1046200010E500F4F85040EA034040EA0E00C2F8FA
:10463000100526F81710BBE72046D5E90067FFF7FD
:104640003BFF002EBDD0114DD5E90023964201D18C
:104650009F4218D011480DF10701FFF773FE0E4B72
:10466000984281D19DF8072005EBC20308345F60B2
:1046700035F8143045F8326043EA422343F480733E
:1046800025F814309DE70022EEE700BF8C000020E3
:104690000400AD0B002584500000AD0BE0000020AD
:1046A000F8B5044679B33A4E00F1080736F81750CA
:1046B000AB0704D4FFF7D8FE08B13648F8BD15F0B3
:1046C0001C0F4B7822D104F01F00DFF8CCC000F1A2
:1046D000800E5CF82EC091F802E05B002CF4E16CD7
:1046E000097843EA8E032CF0070C43EA0C0343EAF3
:1046F0000123294943F00103803045F0030541F8C7
:10470000203026F8175022B92448D7E7012BDAD1F8
:10471000D3E71F4E04F1080736F817008307CCD5FE
:1047200092F800C00023614620F02000890001F1CA
:10473000A041C00401F55041C00CC1F8103526F865
:104740001700C1F810355578002DDDD0D1F810359F
:10475000927823F4981323F4F853C1F81035D1F864
:1047600010E5230203F4F8532D0443EA0E0305F485
:10477000403512052B4302F4801240EA4C301343BB
:1047800040F02000C1F8103526F81700BCE700BF44
:104790008C0000200400AD0B002584500000AD0B00
:1047A000014BC3E9020170478C00002008B50246A6
:1047B000FFF75AFE38B1054B083233F8123004487F
:1047C0005B0B0B7008BD0348FCE700BF8C000020AA
:1047D0000000AD0B0400AD0B38B50F4C94F85850E9
:1047E000BDB94022294604F1100001F055FA0D2010
:1047F000FDF75EFF094B0A48C3F87C51D3F87C21D2
:104800004FF00042C3F80423012384F85830636555
:1048100038BD0448FCE700BF8C00002000D00050E9
:104820000000AD0B0500AD0B034B93F858000038AA
:1048300018BF0120704700BF8C00002001460148CE
:10484000FFF79CBDDC00002001460148FFF77ABD60
:10485000DC000020024610B5FFF706FE1C4B02F1FB
:10486000080433F81430E0B113F0020419D15B0BE3
:104870009A0002F1A04000F5514002F1A04204600C
:1048800002F550420068D2F8100540F00100C2F86D
:10489000100529B1012202FA03F30E4AC2F80433CB
:1048A00010BDC3F38203042B0ED0052B0ED00A4B90
:1048B000196902F01F03D94001F0010102311046CD
:1048C000BDE81040FFF7C0BD0321F8E70221F6E77D
:1048D0008C00002000D000500025845008B502460E
:1048E000FFF7C2FDC0B10F4B02F1080133F81130E0
:1048F000990711D401225B0B9A400B499B0003F1ED
:10490000A043C1F8082303F55043D3F8102522F043
:104910000302C3F8102508BD0021BDE80840104679
:10492000FFF792BD8C00002000D0005010B50C4B5A
:1049300000F1080233F812300446DB070DD5FFF70B
:10494000CDFF2046FFF7E2FD0222064B04F01F04D4
:104950008034054843F8242010BD0448FCE700BF1C
:104960008C000020002584500000AD0B0400AD0B2E
:104970002DE9F04F002501222C464D4B4D484E4964
:1049800085B01E6836B1D0F8046316421EBF1C60A5
:104990001E68154304338B424FEA4202F1D1454F62
:1049A000D7F87C3193B1454E336A039333624FF0AD
:1049B000010A0DF10C09039870B9C7F87C01D7F80A
:1049C0007C31336A03933362002BF0D10124002D34
:1049D00056D105B0BDE8F08F90FAA0FBBBFA8BFB77
:1049E000374A0BF108034FEADB0C32F813100BF0D7
:1049F000070419F80C300AFA04F423EA040309F84E
:104A00000C3006EB8B03D3F80042C1F38202C906D7
:104A10009046C4F3014418D5114658460193FFF758
:104A20002DFD019BE4B2D3F80032C3F301439C4255
:104A300007D100215846FFF707FD21465846FFF7EA
:104A400003FD0AFA0BF03062B5E7022C0CD103210A
:104A50005846FFF7F9FC08F00503012BF1D1414658
:104A60005846FFF70BFDECE7022158460192FFF78D
:104A7000EBFC019A032AF2D0032CE2D18A42EDE743
:104A800095FAA5F3B3FA83F304FA03F29B0003F15A
:104A9000A04303F55043D3F81005D3F81015C0F325
:104AA0000420C1F3014125EA0205FFF7E7FC8EE788
:104AB00000D1005000D0005020D10050002584507B
:104AC0008C0000200022034BC3F88425C3F8042582
:104AD000704700BF00900350044AD2F80834DB0747
:104AE000FBD50160BFF35F8F704700BF009003509C
:104AF00008B5C0F30B0383B90222094BC3F8842520
:104B0000C3F804254FF0FF320260D3F80024D20727
:104B1000FBD5FFF7D7FF034808BD0348FCE700BFFC
:104B2000009003500000AD0B0A00AD0B012208B548
:104B3000054BC3F88425C3F80425FFF7CDFFBDE876
:104B40000840FFF7BFBF00BF009003500346084670
:104B500000B97047421E995C09B91046F8E702286F
:104B600007D90238062896BF024B00231B5C0120A0
:104B7000984070470D8D000070B51C46012C05460D
:104B800003681646C06816D11278172A04D9023372
:104B9000984214D3002321E0013398420FD300241C
:104BA000284603F08FFA60B13444B44219D1AB689F
:104BB0000133AB6006E0621C1344984206D26B6975
:104BC0000BB9002070BD0822DA60FAE70CB9327820
:104BD000E6E7A31E062BDDD8054AD35C1833DAB20C
:104BE000DEE72B685A1C2A6014F8012D1A70DCE7E6
:104BF0000D8D0000104B70B553F82040013053F874
:104C00002060A64200D870BDD4E900358DB1284699
:104C1000984738B10028B8BF4042FF28A8BFFF20FE
:104C2000EB681870EA68537843F001035370083456
:104C3000E7E79847FBE700BF20890000012208B59D
:104C4000084B03201A70FFF7D5FF00F01BF9042072
:104C5000FFF7D0FFFBF7DEFB034A137B23F00103D2
:104C6000137308BDC13D00208001002008B5034832
:104C7000034A0021121A03F0EDFA08BD600100207A
:104C8000C43D002008B50020FFF7B4FF164B03F524
:104C9000006282F3088883F30A880025E023134C1E
:104CA00084F82230E57725766576A57684F820505D
:104CB000636A43F4E023636284F82350FDF7CEFE79
:104CC000FDF7D6FC4FF0FF33A362E36203F0A6FAD0
:104CD0000120FFF78FFF0220FFF78CFF2B462A46AB
:104CE00029460348FDF75AFDC83D002000ED00E0CD
:104CF0003D4C000008B50648064A0749121A03F061
:104D0000ABFABDE80840054A0549064803F0A4BAD5
:104D1000000000205A010020488D00000000000023
:104D2000488D000000000020034B1B680BB9FEF704
:104D3000EDBD0020704700BFBC1B002010B50E4B1E
:104D40001C689C4204D1FFF7EFFF6FF0004010BDDC
:104D5000FFF7EAFF002CF8D0D4E904321B1A62EB0B
:104D6000E072B3F1004F72F10001EEDA002AACBF3D
:104D700018460020EBE700BFE800002030B570B116
:104D80000B4B5B6898420AD0036843B1D3E9042116
:104D9000D0E90445121941EB0501C3E90421D0E92A
:104DA000003213605A600023C0E9003330BD00BFF9
:104DB000E80000202DE9F84F4FF02003EFF3118CAD
:104DC00083F31288BFF36F8FDFF8ACA0DFF8AC90ED
:104DD0000024C9F80000DAF800000025504508BF9B
:104DE0000020274FE046D7E90021D9F8003080B3F2
:104DF000D0E9046C4FEAE37EB3427EEB0C0B05DA9C
:104E0000F61A6CEB0E04C0E9046422E0B21841EB20
:104E1000E671C0E90445C7E90021FFF7AFFF88F359
:104E20001188BFF36F8F836898474FF02003EFF32B
:104E3000118883F31288BFF36F8FD9F80030DAF846
:104E400000009B1B5045C446C9F80030CAD1D7E9C1
:104E5000002100249A1841EBE373C7E90023C9F845
:104E60000040FFF76BFF2146FEF71EFD88F3118817
:104E7000BFF36F8FBDE8F88FE8000020BC1B002057
:104E800000020020014800F021BD00BF178D000086
:104E900010B50A4C23681BB101232360002010BD0C
:104EA00000F050F80028F7D00138062803D8044B4A
:104EB00053F8200010BD034810BD00BFC01B0020E8
:104EC00038890000FE8FFFFFBFF34F8F0549064B67
:104ED000CA6802F4E0621343CB60BFF34F8F00BF98
:104EE000FDE700BF00ED00E00400FA0530B44FF02C
:104EF000FE320025074B084C08494968C3F80024D6
:104F0000C3F80424C3F80824C3F80C24C4F80055DB
:104F100030BC08470010845000008450F00000208E
:104F2000024BD0E90012C3E900127047F0000020E4
:104F300038B131B1002201440346013088421A7071
:104F4000FAD1704738B500F02FF820B1032400F0F3
:104F500063F8204638BD00F031F898B900F0ACF89D
:104F600098B90F4DD5F828391B0EF02B08D1D5F87C
:104F7000242A0C4B9A420AD0072400F017F8E6E7DF
:104F80000624FAE70424204638BD0024F5E7012072
:104F900000F092F804460028F7D1C5F80C0AD8E7CB
:104FA000001084500000E02000207047002070476F
:104FB000014BC3F8040A70470010845010B5114823
:104FC00000F048F800B110BD0F4800F043F8002889
:104FD000F9D10E4C204600F03DF80028F3D10C4BDF
:104FE0000C481C6000F036F801460028EBD100F0B8
:104FF0002DF8044608B1204610BD00F03FF82046C9
:10500000FAE700BF08010020040100200001002091
:10501000F8000020FC00002008B5084800F024F843
:10502000074800F021F8074800F01EF8064800F095
:105030001BF8BDE8084000F00BB800BF08010020D5
:105040000401002000010020FC0000200020704727
:10505000704700BF08B5034B02681B68106898478B
:10506000002008BD2001002008B5034B02685B68E2
:1050700010689847002008BD2001002070B5094C39
:10508000094D2069AB68984718B1084B08485B6820
:1050900098470021074AEB6811602069BDE870401D
:1050A000184700BF0C01002020010020F000002064
:1050B00054890000C41B0020F8B51A4D1A4E04464E
:1050C000B26828699047E8B9184F3B684CB1A3B162
:1050D000012B19D0013B3B602869F36898470020F9
:1050E000F8BD43B90121124AC2F800151149D1F89F
:1050F0001029002AFBD101333B60F36828699847E7
:105100000020F8BD0C48F8BD0A4AD2F81039002B2F
:10511000FBD1074A6FF07E40C2F80035FFF748FF29
:105120003B68D7E70C01002020010020C41B0020B1
:105130000000845000108450E98FFFFF10B5044632
:1051400050B1636813F0685F05D0064A934202D0FD
:1051500000236260236010BD034B04485B689847DE
:10516000EFE700BF2C5F5CA9F0000020748900000D
:10517000C8B143680D4A934213D013F0685F0ED054
:10518000012350E8002F194640E8001C9CF0000F56
:10519000F7D1012AF5D0BFF35F8F00207047044894
:1051A0007047044870476FF4E04070472C5F5CA97B
:1051B000E98FFFFFEA8FFFFF034680B1426809498C
:1051C0008A420AD012F0685F05D0BFF35F8F0022D9
:1051D00010461A60704704487047044870476FF4DF
:1051E000E04070472C5F5CA9E98FFFFFEA8FFFFF6B
:1051F00010B5044620B10023034A2360626010BD4D
:105200000248FFF773FEF6E73A00003A9C89000077
:1052100008B9086070476FF01500704729B101297F
:105220000CBF08206FF01500704702207047002067
:10523000704730B5836804468B42154685B00ED959
:105240006368C068194401AA00F047FE28B9626883
:10525000019B9B1A2B60029B6B6005B030BD6FF009
:105260002100FAE72DE9F7430E4617469946044612
:1052700028B94FF0FF38404603B0BDE8F08300295D
:10528000F7D0002AF5D0CB680D8938461D44042399
:1052900029460DEB030200F015FC80460028E8D1FA
:1052A00046F60812BDF804107389914225D1BDF865
:1052B00006109942DDD1042338460DEB0302294440
:1052C00000F000FC0028D4D146F60713BDF80420F6
:1052D0009A42CED1C4E900679DF82830A4F808901E
:1052E000A3727389BDF806202B44E36073891344CD
:1052F0002B44043563612561BDE7002BE4D0B8E79A
:105300002DE9F3410E4617461D46044620B94FF0DD
:10531000FF3002B0BDE8F0810368002BF7D043688E
:10532000002BF4D04FF6FF78D4E904239A4216D22A
:1053300023685B8923B1E368934204BF043323618C
:105340000423216960680DEB030200F0BBFB002819
:10535000DDD1A37A2BB1D4E903329A4201D30120E3
:10536000D7E72389BDF80610434501F1040203D0B5
:10537000BDF804C09C450BD115B1BDF804302B809D
:105380002369043333603980236913442361C0E700
:10539000236913442361C7E74FF440735843303007
:1053A00070470B78022B06D0082B14BF4FF0FF304C
:1053B0004FF4407070474FF44070704710B504468A
:1053C00000F0BEFB4FF44072A368303B02FB10308C
:1053D00010BD70B50D46044600F0BFFF2A46A0F18F
:1053E000080104232046BDE8704000F06BBB8168D3
:1053F0000122183921F00701083901F01DB813B551
:105400000446019100F0A9FF0423A0F108010DEB6F
:105410000302204600F0E4FF02B010BD13B50446BD
:10542000FFF7CCFF6A4601462046FFF702FF10B99E
:10543000009802B010BD0020FBE7FFF7FEBFFFF7AA
:10544000FCBFFFF7FABFFFF7F8BFFFF7F6BFFFF7A4
:10545000F4BFFFF7F2BFFFF7F0BFFFF7EEBF7047F3
:1054600070B513460E461546002102460446FBF76A
:10547000E5FC50B92B460121204604F12C02FBF734
:10548000DDFC10B1002E08BF002070BD73B50446CE
:1054900000200D461646FFF7C1FE6946C0B2FCF774
:1054A0003DFB30BB2C2303FB0544E36825890098B2
:1054B0001D44042329460DEB030200F003FBC0B991
:1054C00046F60813BDF8042064899A42009815D165
:1054D000BDF806309C420CD1042361190DEB030288
:1054E00000F0F0FA28B946F60713BDF804209A42F6
:1054F00007D0009800F0E5FA02B070BD002CF2D0A1
:10550000F7E7BDF80610214429443160F1E737B5CB
:105510004FF480750446426A01A902200195FCF708
:1055200025FB58B9019B0820226DA36201A90195B2
:10553000FCF71CFB054628B1092500E0012528469B
:1055400003B030BD019B206A636500F0F9FAE065A5
:10555000F5E70123036003F1012343600023C0E961
:10556000023370474379012B07D10368012B04D123
:105570000079431E584258417047002070477FB55C
:1055800006460D46022001A9FCF7C8FA38BB01986F
:10559000FFF714FFF16D0446284600F03DF904447E
:1055A000019800F0CDFA0646019800F0D0FA0822E2
:1055B00001460DEB020000F06FFB2B7921468DF8C0
:1055C00008300198334602AA00F091FA041E0198AF
:1055D00018BF012400F075FA204604B070BD012404
:1055E000FAE700F099BA2DE9F8430E460021074684
:1055F0000846FFF713FE044601210020FFF70EFEC8
:1056000033789C4221D0984221D101252C2303FBE1
:105610000575F86DAC6AFFF7BFFE4FF0000807464E
:10562000013C6B6A304603EBC40253F83410D2F8E5
:1056300004901B684A46C91AC844FFF7D2FFB84510
:1056400004F1FF34EDD3BDE8F8830025DEE7012047
:10565000F9E737B515460C460820694600F003FF08
:10566000E979012903D00022204600F010FF9DF8BF
:105670000330012B02D1204600F0E8FEA968204645
:10568000FFF7BDFE2046FEF763F9002003B030BDF2
:1056900073B50D46064600F0FBF80446E86050B3CB
:1056A00002282DD101A9FCF739FA58BB2A46314608
:1056B000019800F063F80446D0B9019800F04DFE5F
:1056C000012301460DF10302019800F0FBF90446A5
:1056D000A0B9012201980DF1030100F052FE10B1B2
:1056E00001238DF803309DF8033003F00F03EB71B5
:1056F000019800F0E6F9204602B070BD0124F7E7FA
:105700000724F8E70124F6E713B5022001A9FCF706
:1057100005FA48B90198FFF76AFE0446019800F0BF
:10572000D0F9204602B010BD0124FAE71FB50220CF
:1057300001A9FCF7F3F9A8B9019802A9FEF728F925
:10574000044668B99DF80B30032B03D1019800F093
:105750007DFE0446019800F0B4F9204604B010BD67
:105760000124F7E70124F8E7436A00205A6803465A
:1057700013448B4200F10100FAD370472DE9F3473F
:1057800007460C46014600201646FFF70AFE051E96
:105790003EDB3846E46DFFF711FE5FFA84F94FF007
:1057A000FF346B1E09FB030865B9631C06D0FF2C90
:1057B00022DC40F2011301343460B380284602B089
:1057C000BDE8F0870123414638460DF1070200F09D
:1057D00079F9002805F1FF3A1CDB012238460DF16A
:1057E000070100F0CEFD18B9B4F1FF3F08BF2C4609
:1057F0005546A8EB0908D7E70223A4F58074737116
:10580000631004F001040133013433603471D5E7CF
:105810000725D3E70125D1E710B543790279012B9C
:1058200006BF00230C460B0202F1FF3201FB0233DC
:10583000026818BF4C00013A04FB023010BD30B5BD
:10584000816A426D8A4202D0531C8B421CD1B1F551
:10585000807F19D800231C469A4209D1914215D95C
:10586000436A03EBC2035868031B5842584130BDDA
:10587000446A056D04EBC30405EBC30564686D68F9
:10588000AC4201D10133E7E70020F0E70120EEE769
:105890001FB50220694600F0E6FD082002A900F0CD
:1058A000E2FD9DF80030012B0CD19DF80230032B56
:1058B00008D19DF80800013818BF0120400005B04C
:1058C0005DF804FB0020FAE7002070470FB407B52D
:1058D00004A951F8040B0191FBF7A8FD03B05DF892
:1058E00004EB04B07047038B13F0070305D1036882
:1058F000002B0CBF002003207047022B05D1408BEA
:10590000B0FA80F0400980007047012B05D1036890
:10591000002B0CBF0020052070470020704710B5F9
:105920000C4600B111B96FF0150010BD081D00F054
:1059300095F80028F9D1A368032BF6D9F3E72DE9F0
:10594000F0410D4607461946281D90461E4600F0B8
:1059500096F8044638B13346424629463846A446AE
:10596000BDE8F0416047BDE8F08110B44FF020047D
:10597000EFF3118284F31288BFF36F8F416110BC83
:105980000121FBF761BD38B50C46054658B151B150
:105990000B6843B14B6833B11C22002100F07CF945
:1059A00000202C6138BD6FF01500FBE770B505468F
:1059B0000E46FFF7B4FF041E15DB4FF02003EFF394
:1059C000118283F31288BFF36F8F4FF6FF716B8BD9
:1059D0002C8B8B4204F0070407D182F31188BFF3AC
:1059E0006F8F6FF00A04204670BD022C0CD101337A
:1059F0006B8382F31188BFF36F8F002322463146F9
:105A00002846FFF79CFFEEE7062C14D8DFE804F0E9
:105A100004131313041A0400002333606B683BB9AA
:105A2000C5E90066ACB902212846FBF70DFDDAE7AF
:105A30001E606E60F6E782F31188BFF36F8F6FF020
:105A40000404D0E782F31188BFF36F8F6FF08504F1
:105A5000C9E782F31188BFF36F8FC4E7034658B1DB
:105A6000426802F00302012A03D0032A04D102682B
:105A700012B10020986070476FF0150070474268BF
:105A8000034602F00302032A4FF00002816014BFB4
:105A9000104600685A6070470A448A4200D1704735
:105AA00011F8013B40BA80B25840C0F303134340A1
:105AB000180380B24340580100F4FF505840ECE70F
:105AC00070477047002930B4044618460BDBA568C0
:105AD0000844A84207D8E0686468214484682468C0
