:020000021000EC
:10800000E04401204DB401007B7B020021B401005B
:1080100021B4010021B4010021B4010021B4010008
:10802000000000000000000000000000B5B00100EA
:1080300021B401000000000055B0010021B401008E
:108040003DB101003DB101003DB101003DB1010074
:108050003DB101003DB101003DB101003DB1010064
:108060003DB101003DB101003DB101003DB1010054
:108070003DB101003DB101003DB101003DB1010044
:108080003DB101003DB101003DB101003DB1010034
:108090003DB101003DB101003DB101003DB1010024
:1080A0003DB101003DB101003DB101003DB1010014
:1080B0003DB101003DB101003DB101003DB1010004
:1080C0003DB101003DB101003DB101003DB10100F4
:1080D0003DB101003DB101003DB101003DB10100E4
:1080E0003DB101003DB101003DB101003DB10100D4
:1080F0003DB101003DB101003DB101003DB10100C4
:108100003DB101003DB101003DB101003DB10100B3
:108110003DB101003DB101003DB101003DB10100A3
:108120003DB101003DB101003DB101003DB1010093
:108130003DB101003DB101003DB101003DB1010083
:048140003DB101004C
:04814400FFFFFFFF3B
:108148004FF0FF0C1CEAD0521EBF1CEAD15392EA32
:108158000C0F93EA0C0F6FD01A4480EA010C40020E
:1081680018BF5FEA41211ED04FF0006343EA501068
:1081780043EA5111A0FB01310CF00040B1F5000FAA
:108188003EBF490041EAD3715B0040EA010062F159
:108198007F02FD2A1DD8B3F1004F40EBC25008BF43
:1081A80020F00100704790F0000F0CF0004C08BF61
:1081B80049024CEA502040EA51207F3AC2BFD2F12E
:1081C800FF0340EAC250704740F400004FF000033C
:1081D800013A5DDC12F1190FDCBF00F00040704776
:1081E800C2F10002410021FA02F1C2F1200200FAB4
:1081F80002FC5FEA310040F1000053EA4C0308BF7B
:1082080020EADC70704792F0000F00F0004C02BFCB
:10821800400010F4000F013AF9D040EA0C0093F046
:10822800000F01F0004C02BF490011F4000F013BA0
:10823800F9D041EA0C018FE70CEAD15392EA0C0F0E
:1082480018BF93EA0C0F0AD030F0004C18BF31F079
:10825800004CD8D180EA010000F00040704790F04F
:10826800000F17BF90F0004F084691F0000F91F0F3
:10827800004F14D092EA0C0F01D142020FD193EAB9
:108288000C0F03D14B0218BF084608D180EA010041
:1082980000F0004040F0FE4040F40000704740F01D
:1082A800FE4040F44000704781F0004102E000BF0A
:1082B80083F0004330B54FEA41044FEA430594EA9E
:1082C800050F08BF90EA020F1FBF54EA000C55EAD9
:1082D800020C7FEA645C7FEA655C00F0E2804FEAAA
:1082E8005454D4EB5555B8BF6D420CDD2C4480EA8C
:1082F800020281EA030382EA000083EA010180EABC
:10830800020281EA0303362D88BF30BD11F0004F09
:108318004FEA01314FF4801C4CEA113102D040423F
:1083280061EB410113F0004F4FEA03334CEA13337A
:1083380002D0524263EB430394EA050F00F0A78092
:10834800A4F10104D5F1200E0DDB02FA0EFC22FA8D
:1083580005F2801841F1000103FA0EF2801843FA81
:1083680005F359410EE0A5F120050EF1200E012A72
:1083780003FA0EFC28BF4CF0020C43FA05F3C018B0
:1083880051EBE37101F0004507D54FF0000EDCF129
:10839800000C7EEB00006EEB0101B1F5801F1BD3D2
:1083A800B1F5001F0CD349085FEA30004FEA3C0CD6
:1083B80004F101044FEA445212F5800F80F09A80CC
:1083C800BCF1004F08BF5FEA500C50F1000041EBD0
:1083D800045141EA050130BD5FEA4C0C404141EBD4
:1083E8000101013C28BFB1F5801FE9D291F0000FCF
:1083F80004BF01460020B1FA81F308BF2033A3F17E
:108408000B03B3F120020CDA0C3208DD02F1140C74
:10841800C2F10C0201FA0CF021FA02F10CE002F1AF
:108428001402D8BFC2F1200C01FA02F120FA0CFCA8
:10843800DCBF41EA0C019040E41AA2BF01EB0451F1
:10844800294330BD6FEA04041F3C1CDA0C340EDCEF
:1084580004F11404C4F1200220FA04F001FA02F332
:1084680040EA030021FA04F345EA030130BDC4F1F0
:108478000C04C4F1200220FA02F001FA04F340EAE5
:108488000300294630BD21FA04F0294630BD94F096
:10849800000F83F4801306BF81F480110134013D7D
:1084A8004EE77FEA645C18BF7FEA655C29D094EAEE
:1084B800050F08BF90EA020F05D054EA000C04BF6C
:1084C8001946104630BD91EA030F1EBF0021002057
:1084D80030BD5FEA545C05D14000494128BF41F0F6
:1084E800004130BD14F580043CBF01F5801130BD5A
:1084F80001F0004545F0FE4141F470014FF00000E5
:1085080030BD7FEA645C1ABF194610467FEA655C95
:108518001CBF0B46024650EA013406BF52EA033537
:1085280091EA030F41F4002130BD00BF90F0000F25
:1085380004BF0021704730B54FF4806404F1320461
:108548004FF000054FF0000150E700BF90F0000F1A
:1085580004BF0021704730B54FF4806404F1320441
:1085680010F0004548BF40424FF000013EE700BF11
:1085780042004FEAE2014FEA31014FEA02701FBFA1
:1085880012F07F4393F07F4F81F06051704732F0D3
:108598007F4208BF704793F07F4F04BF41F400212A
:1085A800704730B54FF4607401F0004521F0004188
:1085B8001CE700BF50EA010208BF704730B54FF012
:1085C80000050AE050EA010208BF704730B511F013
:1085D800004502D5404261EB41014FF4806404F14B
:1085E80032045FEA915C3FF4D8AE4FF003025FEAD1
:1085F800DC0C18BF03325FEADC0C18BF033202EB55
:10860800DC02C2F1200300FA03FC20FA02F001FAAE
:1086180003FE40EA0E0021FA02F11444BDE600BF51
:1086280070B54FF0FF0C4CF4E06C1CEA11541DBF00
:108638001CEA135594EA0C0F95EA0C0F00F0DEF8CB
:108648002C4481EA030621EA4C5123EA4C5350EAB0
:10865800013518BF52EA033541F4801143F4801301
:1086680038D0A0FB02CE4FF00005E1FB02E506F092
:108678000042E0FB03E54FF00006E1FB03569CF0E7
:10868800000F18BF4EF0010EA4F1FF04B6F5007FED
:1086980064F5407404D25FEA4E0E6D4146EB06065F
:1086A80042EAC62141EA55514FEAC52040EA5E50E8
:1086B8004FEACE2EB4F1FD0C88BFBCF5E06F1ED892
:1086C800BEF1004F08BF5FEA500E50F1000041EBC9
:1086D800045170BD06F0004646EA010140EA020076
:1086E80081EA0301B4EB5C04C2BFD4EB0C0541EA98
:1086F800045170BD41F480114FF0000E013C00F3AD
:10870800AB8014F1360FDEBF002001F0004170BDD0
:10871800C4F10004203C35DA0C341BDC04F11404E9
:10872800C4F1200500FA05F320FA04F001FA05F275
:1087380040EA020001F0004221F0004110EBD37042
:1087480021FA04F642EB06015EEA430E08BF20EA6E
:10875800D37070BDC4F10C04C4F1200500FA04F311
:1087680020FA05F001FA04F240EA020001F00041A3
:1087780010EBD37041F100015EEA430E08BF20EA16
:10878800D37070BDC4F1200500FA05F24EEA020E5E
:1087980020FA04F301FA05F243EA020321FA04F08D
:1087A80001F0004121FA04F220EA020000EBD37044
:1087B8005EEA430E08BF20EAD37070BD94F0000F44
:1087C8000FD101F00046400041EB010111F4801F78
:1087D80008BF013CF7D041EA060195F0000F18BF29
:1087E800704703F00046520043EB030313F4801F65
:1087F80008BF013DF7D043EA0603704794EA0C0F1F
:108808000CEA135518BF95EA0C0F0CD050EA410634
:1088180018BF52EA4306D1D181EA030101F00041B1
:108828004FF0000070BD50EA410606BF10461946D9
:1088380052EA430619D094EA0C0F02D150EA0136E5
:1088480013D195EA0C0F05D152EA03361CBF104626
:1088580019460AD181EA030101F0004141F0FE41C5
:1088680041F470014FF0000070BD41F0FE4141F449
:10887800780170BD70B54FF0FF0C4CF4E06C1CEA49
:1088880011541DBF1CEA135594EA0C0F95EA0C0FFE
:1088980000F0A7F8A4EB050481EA030E52EA0335B9
:1088A8004FEA013100F088804FEA03334FF08055DA
:1088B80045EA131343EA12634FEA022245EA111507
:1088C80045EA10654FEA00260EF000419D4208BFB8
:1088D800964244F1FD0404F5407402D25B084FEA65
:1088E8003202B61A65EB03055B084FEA32024FF411
:1088F80080104FF4002CB6EB020E75EB030E22BF6E
:10890800B61A754640EA0C005B084FEA3202B6EB2D
:10891800020E75EB030E22BFB61A754640EA5C00DC
:108928005B084FEA3202B6EB020E75EB030E22BF6C
:10893800B61A754640EA9C005B084FEA3202B6EB6D
:10894800020E75EB030E22BFB61A754640EADC002C
:1089580055EA060E18D04FEA051545EA16754FEA8E
:1089680006164FEAC30343EA52734FEAC2025FEAAC
:108978001C1CC0D111F4801F0BD141EA00014FF03B
:1089880000004FF0004CB6E711F4801F04BF01430C
:108998000020B4F1FD0C88BFBCF5E06F3FF6AFAE28
:1089A800B5EB030C04BFB6EB020C5FEA500C50F1B8
:1089B800000041EB045170BD0EF0004E4EEA11313B
:1089C80014EB5C04C2BFD4EB0C0541EA045170BD42
:1089D80041F480114FF0000E013C90E645EA060E86
:1089E8008DE60CEA135594EA0C0F08BF95EA0C0FB4
:1089F8003FF43BAF94EA0C0F0AD150EA01347FF4FC
:108A080034AF95EA0C0F7FF425AF104619462CE7D2
:108A180095EA0C0F06D152EA03353FF4FDAE104635
:108A2800194622E750EA410618BF52EA43067FF486
:108A3800C5AE50EA41047FF40DAF52EA43057FF416
:108A4800EBAE12E74FEA4102B2F1E04324BFB3F5BF
:108A5800001CDCF1FE5C0DD901F0004C4FEAC002AD
:108A68004CEA5070B2F1004F40EB830008BF20F091
:108A78000100704711F0804F21D113F13872BCBF4B
:108A880001F00040704741F480114FEA5252C2F1A0
:108A98001802C2F1200C10FA0CF320FA02F018BFE9
:108AA80040F001004FEAC1234FEAD32303FA0CFC3C
:108AB80040EA0C0023FA02F34FEA4303CCE77FEACB
:108AC800625307D150EA01331EBF4FF0FE4040F415
:108AD8004000704701F0004040F0FE4040F40000C4
:108AE800704700BF80F0004002E000BF81F0004105
:108AF80042001FBF5FEA410392EA030F7FEA226C3C
:108B08007FEA236C6AD04FEA1262D2EB1363C1BFCB
:108B1800D218414048404140B8BF5B42192B88BF3A
:108B2800704710F0004F40F4000020F07F4018BF5D
:108B3800404211F0004F41F4000121F07F4118BF7D
:108B4800494292EA030F3FD0A2F1010241FA03FC25
:108B580010EB0C00C3F1200301FA03F100F000430D
:108B680002D5494260EB4000B0F5000F13D3B0F1D5
:108B7800807F06D340084FEA310102F10102FE2A44
:108B880051D2B1F1004F40EBC25008BF20F00100B4
:108B980040EA03007047490040EB0000013A28BF53
:108BA800B0F5000FEDD2B0FA80FCACF1080CB2EBD6
:108BB8000C0200FA0CF0AABF00EBC2505242184354
:108BC800BCBFD0401843704792F0000F81F40001F9
:108BD80006BF80F400000132013BB5E74FEA4103CC
:108BE8007FEA226C18BF7FEA236C21D092EA030F38
:108BF80004D092F0000F08BF0846704790EA010FB2
:108C08001CBF0020704712F07F4F04D1400028BFDE
:108C180040F00040704712F100723CBF00F50000C0
:108C2800704700F0004343F0FE4040F400007047F6
:108C38007FEA226216BF08467FEA236301464202A2
:108C480006BF5FEA412390EA010F40F480007047B5
:108C58004FF0000304E000BF10F0004348BF40425B
:108C68005FEA000C08BF704743F0964301464FF097
:108C780000001CE050EA010208BF70474FF00003F3
:108C88000AE000BF50EA010208BF704711F0004334
:108C980002D5404261EB41015FEA010C02BF844604
:108CA8000146002043F0B64308BFA3F18053A3F563
:108CB8000003BCFA8CF2083AA3EBC25310DB01FAAA
:108CC80002FC634400FA02FCC2F12002BCF1004F2E
:108CD80020FA02F243EB020008BF20F001007047BF
:108CE80002F1200201FA02FCC2F1200250EA4C0013
:108CF80021FA02F243EB020008BF20EADC70704759
:108D08007BB972B90029BEBF00204FF0004106E0D0
:108D180008BF00281CBF6FF000414FF0FF3000F083
:108D280057B8ADF1080C6DE904CE002909DB002B1A
:108D38001ADB00F04FF8DDF804E0DDE9022304B0A7
:108D48007047404261EB4101002B1BDB00F042F809
:108D5800DDF804E0DDE9022304B0404261EB4101A3
:108D6800524263EB43037047524263EB430300F004
:108D780031F8DDF804E0DDE9022304B0404261EB9C
:108D880041017047524263EB430300F023F8DDF8DA
:108D980004E0DDE9022304B0524263EB4303704769
:108DA80053B94AB9002908BF00281CBF4FF0FF314A
:108DB8004FF0FF3000F00CB8ADF1080C6DE904CEAF
:108DC80000F008F8DDF804E0DDE9022304B070479C
:108DD800704700BF2DE9F04786468C460846089E36
:108DE800154674461946002B40F0C1808542B2FAF8
:108DF80082F245D94AB1C2F1200300FA02FC95403B
:108E080094402EFA03F343EA0C0C4FEA154EA8B22D
:108E1800230CBCFBFEF80EFB18CC08FB00F943EA58
:108E28000C43994528D9EB1808F1FF3704D2994526
:108E380002D9A8F102072B44A3EB0903A4B2B3FBA0
:108E4800FEFC0EFB1C330CFB00F044EA0344A0427A
:108E580014D92C190CF1FF3304D2A04202D9ACF179
:108E680002032C44241A43EA07401EB1D4400023CD
:108E780034607360BDE8F0874746DDE76346F1E795
:108E880092BB431B01214FEA154EAFB2200CB3FB36
:108E9800FEFC0EFB1C330CFB07F840EA0343984525
:108EA80061D9EB180CF1FF3004D2984502D9ACF126
:108EB80002002B44A3EB0803A4B2B3FBFEFC0EFB99
:108EC8001C330CFB07F744EA0344A7424DD92C197D
:108ED8000CF1FF3304D2A74202D9ACF102032C44AF
:108EE800E41B43EA0040C0E7C2F1200395409440E8
:108EF80020FA03F12EFA03F34FEA154E9040AFB271
:108F08000343B1FBFEFC0EFB1C10190C0CFB07F80D
:108F180041EA0041884522D969180CF1FF3004D292
:108F2800884502D9ACF102002944A1EB08019BB2A3
:108F3800B1FBFEFC0EFB1C110CFB07F743EA0143D7
:108F48009F420ED9EB180CF1FF3104D29F4202D98F
:108F5800ACF102012B44DB1B41EA004193E7604678
:108F6800E3E76146F7E76046A4E76346B8E783426C
:108F780006D916B9002108467CE7C6E900E0F9E7FA
:108F8800B3FA83F78FB9834201D3724508D8BEEB91
:108F9800020460EB030301209C461EB9002169E727
:108FA8003846FAE7C6E9004CF8E7C7F1200CBB40A1
:108FB8000EFA07F522FA0CF42EFA0CF1BA401C430B
:108FC80020FA0CF3B8404FEA144901431FFA84FE13
:108FD800B3FBF9F809FB18300B0C08FB0EFA43EA4F
:108FE80000439A4540D9E31808F1FF3004D29A4566
:108FF80002D9A8F102002344A3EB0A0389B2B3FB08
:10900800F9F809FB183308FB0EFE41EA03418E45C7
:109018002CD9611808F1FF3304D28E4502D9A8F182
:109028000203214443EA0040A1EB0E01A0FB029891
:109038004145CE46434602D306D14D4504D20138B8
:10904800B9EB020E68EB0403002EA7D0B5EB0E02B5
:1090580061EB030101FA0CFC22FA07F3F9404CEA30
:109068000303C6E9003199E74046C5E74346D9E717
:1090780010F8012B11F8013B012A28BF9A42F7D0BA
:10908800D01A7047034613F8012B002AFBD1181A8F
:109098000138704700000000022A70B504460D46EA
:1090A800184611D8DAB1022D19886DD8B1F5006FBC
:1090B8006AD2022A4FF0020314BF232220226068DA
:1090C800BDE870400FF0A7B9052A04D003291CD9C0
:1090D8006FF085005AE0022325220188EFE7032973
:1090E800F6D84FF47A711D885B6893FBF1F39BB255
:1090F80055EA0301ECD02849088885423AD220462F
:10910800BDE87040D1B20FF0B1B9072AE0D15B6871
:1091180005682248D917C5FB0031012B71F10002FF
:109128001CDB00F56E1000F65D70181841F10001A7
:1091380017A3D3E90023FFF7E3FD80B2022815D96E
:10914800042815D90828C3D80222154B2046BDE8A3
:10915800704003EB820399780FF069B91148181829
:1091680061F100010AA3D3E90023E4E70022ECE758
:109178000122EAE702D148889842C0D20132062A81
:1091880001F10401B8D1A3E76FF0150070BD00BF6D
:109198003AA39500000000009ECB020040420F0059
:1091A80092CB0200632EB5FF002370B586B0CDE9DF
:1091B800043304230D4606460193002800F08680F8
:1091C800002900F08380062104A810F0D8F904468D
:1091D800002838D1014604AA304610F0B7F90446F1
:1091E80048BB6A46012104A810F0A5FA044610BB42
:1091F800009C24B3042C29D0052C0CBF0923FF2381
:109208002B70032101AB02AA04A810F0C0FA04468F
:1092180088B9019B014618336B4403F8100C0222ED
:1092280002A80CF0ABFD2B78C0B2072B10D0092B8D
:1092380013D06FF07F0404A810F0CBF903E00023EB
:109248002C706B60AB60204606B070BD0723D7E773
:109258000F2809D96FF01504EDE70F28FAD8204B2D
:10926800204E33F8100003E01F4B204E33F8100057
:1092780050B3FFF76BF918A3D3E90023FFF7D0F930
:10928800FFF7E0FB042168600DEB010302AA04A8C4
:10929800019110F07CFA04460028CCD1019B0146CC
:1092A80018336B4403F8100C022202A80CF066FD78
:1092B800C0B20F28CED80130C0B2FFF7CDFC31467E
:1092C800FEF73EFFA860B6E70948DBE76FF0150434
:1092D800B9E700BFAFF300807B14AE47E17A2440C2
:1092E800B6CB02000AD72340D6CB02000AD7A33F49
:1092F8000AD7A34070B50D460446164600F01EFA7C
:10930800052D26D8DFE805F0030D1319221630467F
:1093180007F05EFF214602461048BDE870400DF098
:109328004BBE21460E48BDE870400DF045BE2146B3
:109338000C48F8E721460C48F5E721460B480DF0A4
:109348003BFEBDE870400A480BF010BB21460948B7
:10935800E9E72A4621460848DFE700BFF6CB0200C6
:1093680010CC02002ACC020046CC020067CC0200D6
:1093780038C900207FCC020099CC020000B5A1B00A
:1093880080226946002007F0FFFC694610480DF06E
:1093980013FE802269460B2007F0F6FC69460D484B
:1093A8000DF00AFE802269460D2007F0EDFC6946A3
:1093B80009480DF001FE80226946122007F0E4FCFE
:1093C800694606480DF0F8FD21B05DF804FB00BFC2
:1093D800BBCC0200D0CC0200E5CC020001CD0200DB
:1093E80010B523488AB00DF0E7FD00F091F900F0C0
:1093F800A3FA05F0F5FB014630B11E480DF0DCFD7F
:10940800002420460AB010BD07F0FEFD014608B151
:109418001948F3E7194810F068FB014608B11848E5
:10942800ECE718480DF0C8FD10F073FA014608B1D2
:109438001548E3E715480DF0BFFDFFF79FFF24220D
:10944800132001A907F0A0FC041E04DA21461048E5
:109458000DF0B2FDD5E701A800F002F900F06EF9B1
:1094680000F144010B480DF0A7FD00F00DFAC7E725
:1094780011CD02002FCD02005FCD0200FD92010048
:1094880083CD0200ACCD0200C3CD0200F1CD0200B5
:10949800F5CD020014CE020037B50D467B2111F040
:1094A800FAFE044678B17D2111F03BFF58B1013036
:1094B800011B01232046054A009501F027FA00EA1E
:1094C800E07003B030BD4FF0FF30FAE758BF02003C
:1094D8002DE9F0430127D1B005465022002106A806
:1094E80011F08CFED82200211AA8CDE9087711F0D6
:1094F80085FE00F023F900F130044FF0FF324FF001
:10950800FF3320460BF048F9494B45954693494BA4
:10951800494D4193494B8DF8007143934FF40063D3
:109528004995449320460BF0B1F92846444903ABCA
:1095380006AA0EF0A0F9044640B102462946414861
:109548000DF03AFD204651B0BDE8F083039B9868C2
:109558004FF48172394601F04DFB061E0ADA0EF00F
:109568006BFB016838480DF027FD0EF065FB0468B9
:10957800644216E04FF002082A23CDE904834FF035
:10958800040905224FF48D71CDF8009004AB0EF05C
:109598007CFA044660B10EF04FFB01682B480DF0D1
:1095A8000BFD03980EF069F930460EF099F9C9E7FA
:1095B8004FF48D713A463046CDF8009005AB0EF069
:1095C80064FA044620B10EF037FB01682048E6E74C
:1095D8000F23424600934FF48D712B4630460EF010
:1095E80054FA044620B10EF027FB01681948D6E763
:1095F8004BF60132039B9B695A80039BD3E90521F3
:1096080030460EF091F9002804DA0EF015FB0168D7
:109618001148A8E7234641F2883230461AA903F0D8
:10962800C5FC041EBDDA0EF007FB01680B489AE77B
:1096380085CE0200396F020075CE02009CDD002045
:109648008ECE020092CE0200BCCE0200E0CE020016
:109658000BCF020030CF020056CF02007ECF0200AF
:1096680070B5ADF5007D054600F068F84FF400715F
:109678002B46234A044668460CF068F96846FFF70B
:1096880027FF011E05DA1F480DF096FC0DF5007D39
:1096980070BD4FF0FF324FF0FF3304F118000BF0AC
:1096A8008BF904F130054FF0FF3304F144064FF015
:1096B800FF3228460BF070F83246D4F844181248A6
:1096C8000DF07AFC304604F65C01FFF7E5FE28460B
:1096D8000BF0DCF804F648010A46D4F8603803F1C8
:1096E800100053F8045B834242F8045BF9D11B78FD
:1096F800064813700DF060FC20460BF037F9C5E7FB
:10970800A6CF0200B9CF0200EDCF020014D00200AC
:1097180010B5094C01220021204611F02DFA012232
:10972800002104F1180011F027FA04F13000BDE817
:10973800104011F09DB900BF80CC00200048704750
:1097480080CC00202DE9F041ADF5327DFFF7F6FF22
:10975800044600F1180600F130054FF0FF324FF0D3
:10976800FF330BF029F93F480DF026FC3E4F3846F1
:109778000DF022FC10AB0EAA0CA90AA800F0AEF856
:10978800802212A9002007F0FFFA12A937480DF02D
:1097980013FC09AA364912A80CF00CF9802212A968
:1097A8000B2007F0F1FA12A932480DF005FC3249F6
:1097B8000DF1260212A80CF0FDF84FF0FF324FF021
:1097C800FF3328460AF0E8FF0A220F9B4FF4007186
:1097D80007930E9B32A806930D9B04F1440853434C
:1097E80005930C9B534304930B9B244A03930A9BB6
:1097F8000293BDF924300193BDF82630009304F696
:1098080048030CF0A3F84FF400620021404611F021
:10981800F5FC28460BF03AF832A8FFF759FE011E6E
:1098280002DA17480DF0C8FB4FF0FF324FF0FF3354
:1098380030460BF0C1F84FF0FF334FF0FF322846A7
:109848000AF0AAFF4246D4F844180E480DF0B4FBBB
:1098580028460BF01BF800214FF096700BF0ECFC3B
:1098680085E700BF2AD0020044D00200BBCC02002A
:1098780080CD0200D0CC020033DE020064D00200AA
:10988800BED00200EBD0020000B589B00022002350
:10989800CDE9062300230522CDE90133CDE90323D1
:1098A80000934FF48052044B044905480AF0D0FE57
:1098B80009B05DF804FB00BF4D97010000EB0020E4
:1098C800D0C9002010B403460A46034881680C69D1
:1098D8001946234610BC18471CBB02002DE9F0416D
:1098E80007460E4615461C46DFF84480404610F0F1
:1098F800FFFF20B9BDE8F0410E480DF05DBBD8F878
:1099080008303921DB684046984739460D20FFF773
:10991800D9FF31460E20FFF7D5FF29461020FFF763
:10992800D1FF2146BDE8F0411D20FFF7CBBF00BFA6
:109938001CBB02000DD1020038B5094D284610F0B5
:10994800D7FF044620B907480DF036FB204638BD3E
:1099580029462A6804480BF0D1FF0120F7E700BF29
:109968001CBB02000DD1020028D10200032808B553
:1099780006D90EF061F9092303604FF0FF3008BDE6
:10998800044B03EB4013D3E8AF3F002BF1D000208A
:10999800F5E700BF5CD5002070B504460E461546B5
:1099A800FFF7E4FF00280CDB074B610103EB4414CD
:1099B800626832601DB101F10C021A442A605858DD
:1099C80070BD0020FCE700BF54D5002010B500246E
:1099D8004FF0FF334FF0FF3214480AF0DDFE144B0E
:1099E800D3E8AF2F7AB10134042C03F12003F7D167
:1099F8000EF022F917234FF0FF3403600B480AF0EA
:109A080045FF204610BDD3E8EF0F0130C3E8E10F52
:109A18000029F8D10748630100EB4411C2504A609D
:109A28000C33184411F024F8E8E700BFACC8002054
:109A38005CD5002054D5002010B404461046094BCC
:109A4800620103EB44149950606040B1C46834B1BA
:109A58000C32134410BC40F205120DF089BA10BC48
:109A6800704700BF54D5002030B50D49400100F1C2
:109A780008030B44D3E8AF2F82B1541ED3E8EF5F3D
:109A8800954204D1C3E8EC4FBCF1000FF6D1F1D1F7
:109A9800012A01BF00230A180B50536030BD00BFD4
:109AA80054D50020014B1B68184700BF80C5002013
:109AB800014B1860704700BF80C5002007B50B46F2
:109AC800002102460091034800F08CF903B05DF8CC
:109AD80004FB00BFAD9A010030B5002587B0CDE981
:109AE80003010446009503A90548059500F07AF995
:109AF800DDE904309842B8BF255407B030BD00BF37
:109B08009B6F02002DE9F047058B04462807904615
:109B180011D4022905F0070540F0CD8020460DF04C
:109B280039FC78B10138218B042811D8DFE800F01E
:109B3800C3106D85950001290CBF45F0100545F04F
:109B48002005258388F31188BFF36F8FBDE8F08760
:109B580001F0070AAA4500F0A6800027B9463E464C
:109B6800A368002B00F0BD8041F00801218388F331
:109B78001188BFF36F8FA168002900F0BB800D68C2
:109B8800002900F0B780334652462046D1F80480B9
:109B9800C047002D76D02B6829461D46F0E701F016
:109BA80007035A1F012A1BD8002221F00701062BA0
:109BB800276889B2C4E9002209D13B4603E0628BD9
:109BC800013262831B68002BF9D141F00201204663
:109BD80021830DF0DFFB00287BD041F0200177E0E6
:109BE800042B0AD121F0070189B2204621830DF008
:109BF800D1FB10B141F020012183218B01F0070A2C
:109C0800AA4550D00027B946AAE7236921F00701E1
:109C180041F00601062DD3F8009021832DD1B9F12A
:109C2800000F40D041F00801218388F31188BFF369
:109C38006F8F20463949C84729E021F00701236979
:109C480041F0040189B2042DD3F804902183E6D0B1
:109C580000274FF0040A3E4682E721F007012369F6
:109C680041F0050189B2052DD3F808902183D6D09B
:109C780000274FF0050A3E4672E700274FF0060A14
:109C88003E466DE72B4687E7B9F1000FD1D14FF07B
:109C98002003EFF3118883F31288BFF36F8F238BB0
:109CA80023F008032383258BEA062ED525F010031D
:109CB800238305F007056669218B002EBFF66FAF79
:109CC80000232768C4E9003321F0070141F00101AE
:109CD8002183218B4FF0000901F0070AAA457FF480
:109CE8003FAF002F9BD041F00801218388F31188F2
:109CF800BFF36F8F002FC7D03D68394633465246B1
:109D080020460DF073FB2F46F4E7AB067FF51AAF3C
:109D180025F02003238305F00705FFE621740200E0
:109D2800F0B5024601680A270020074E0B461C784A
:109D38000131355D6D0701D41360F0BD07FB0043A9
:109D4800A3F13000F2E700BF47E902002DE9F84F20
:109D580015469A46D378224A6F2B12F803B08046EC
:109D68000F460BF0030B29D024D8582B0CBF102614
:109D78000A26DDF828903246002340463946FFF788
:109D88000FF8092AD4B21ED83034B045E4B277F1BE
:109D9800000709F8014D01D3D14511D82B789B064E
:109DA80005D5082E15D1AB7843F00803AB704846AB
:109DB800BDE8F88F03F0F703702BD7E70826D8E73C
:109DC80080460F46D7E7BBF1010F0CBF3734573435
:109DD800DBE7102EEBD1AB7843F01003E6E700BFCA
:109DE80047E902002DE9F04F8A4616461C46002531
:109DF80097B00390307808B928464AE3731C2528A1
:109E0800049307D05146039B98470028C0F241832A
:109E18000135F0E11822002110A811F0EFF973784C
:109E2800252B00F0A380002398469E469C461846A2
:109E3800711C0F4611F8012B2B2A00F0C68000F286
:109E4800BD80202A00F0C480232A00F0C4802BB1F2
:109E58009DF8483043F040038DF84830B8F1000FC2
:109E680005D09DF8483043F020038DF84830BEF106
:109E7800000F05D09DF8483043F010038DF84830A6
:109E8800BCF1000F05D09DF8483043F008038DF869
:109E9800483028B19DF8483043F004038DF8483025
:109EA8009DF8483003F04401442903D16FF3861329
:109EB8008DF848309DF848302A2A43F080030997E6
:109EC8008DF8483040F08C809DF8493043F001030C
:109ED8008DF849307B1C1A782E2A0CBF01210021ED
:109EE8009DF8492061F341028DF849200CD15A1C94
:109EF80009925A782A2A40F083809DF84920023333
:109F080042F004028DF849201A786C2A00F0A480E7
:109F180000F28680682A00F08C806A2A00F0A5800A
:109F28004C2A00F0AA801A4612F8013B782B0492BA
:109F38008DF84B309DF8492000F217816D2B00F207
:109F4800A980692B00F21181572B00F2BE80412BAA
:109F580003D0453B022B00F2088104229DF84A30C9
:109F680062F302038DF84A300123CAE0B21C04925E
:109F78008DF84B309DF84930D90740F1FD8054F8F1
:109F8800048BB8F1000F07DA9DF84820C8F10008E3
:109F980042F004028DF848205A0740F1F68054F840
:109FA80004BBBBF1000F80F2F5809DF849306FF3D8
:109FB80041038DF849304FF0FF3BEBE02D2A0DD0DF
:109FC800302A7FF444AF012333E74FF0010C30E728
:109FD8004FF0010E2DE74FF001082AE7012028E78E
:109FE80009A8FFF79DFE099BBB423FF474AF9DF89B
:109FF80048201390C00F60F341028DF848206AE7AB
:10A0080009A8FFF78DFE9DF848301490C3F340026D
:10A0180042EAD07262F341038DF84830099B73E736
:10A02800742A26D07A2A7FF47EAF06219DF849202B
:10A038000CE05A78682A9DF8492006D1012161F37D
:10A04800C6028DF8492002336DE7022161F3C6028A
:10A058008DF84920013366E75A786C2A9DF8492023
:10A0680001D10421EBE70321F0E705219DF8492000
:10A07800ECE707219DF84920E8E7BDF8482022F4DD
:10A08800F04222F0020242F4804242F00202ADF8AD
:10A098004820DFE76E3BD9B201238B4040F2824172
:10A0A8000B4238D113F0240F52D1DF075DD50321BD
:10A0B8009DF84A3061F302038DF84A3002F07803C4
:10A0C800A3F14000434243411BE00120A3F15801A2
:10A0D800C9B200FA01F111F4624F7FF43EAF40F6C5
:10A0E800010739421DD111F4043F3ED09DF84A3092
:10A0F80060F3020302F07802402A8DF84A3034D027
:10A1080000239DF84820C2F340010B4363F341024A
:10A118008DF848202EE702219DF84A3061F30203AA
:10A12800E8E702209DF84A1002F0780260F3020185
:10A13800402A8DF84A1002BF9DF8481041F00101ED
:10A148008DF84810632BDBD1131E18BF0123D8E705
:10A1580003219DF84A3012F0780F61F302038DF85D
:10A168004A3014BF01230023CBE79DF8483043F061
:10A1780001038DF84830C3E79DF94820002AACBF99
:10A188004FF0FF38DDF84C8006E79F077FF513AFE7
:10A19800DDF850B00023CDE913339DF84A309DF81F
:10A1A800491003F00703012BC1F3C30133D1CB1EC0
:10A1B800042B04D8DFE803F0214646212100236858
:10A1C80001294FEAE372CDE910321CD19DF94030E4
:10A1D800DA17CDE9103204349DF8483013F003073C
:10A1E80050D032465146049B03980DF0BBF9002825
:10A1F800C0F24F810544049EFCE554F8043BDA178D
:10A20800CDE91032E8E70229E5D11AB243F3C033A9
:10A21800CDE91023DFE7022B24D1CB1E042B04D871
:10A22800DFE803F018101018180001294FF0000299
:10A2380054F8043B14D00229CDE91032CCD19BB29A
:10A248001093C9E7073424F00704F4E80223CDE9A2
:10A258001023C1E754F8043B109300231193BBE784
:10A26800DBB2CDE7042B08D1073424F00704D4E986
:10A2780000230834CDE91023AEE7032BACD154F802
:10A28800043BDDE79DF84B007828B4D862281DD838
:10A2980025283FF4B7AD5828ADD1DDE910010DF1FF
:10A2A8003E03009312AA0AABFFF750FDBBF1000F63
:10A2B800814680F29880B9F1000F9CD00DF13E06DE
:10A2C800A6EB0903002F50D001334EE06338152860
:10A2D80091D801A252F820F061A30100C5A30100A2
:10A2E800FFA10100FFA10100FFA10100FFA10100E2
:10A2F800C5A30100FFA10100FFA10100FFA101000A
:10A30800FFA101004FA40100E9A3010011A401006D
:10A31800FFA10100FFA1010039A30100FFA1010075
:10A32800E9A30100FFA10100FFA10100E9A30100C9
:10A33800BBF1000FDDF840900ADB5946484610F0A3
:10A34800E4FFB9F1000F3FF456AF09EB000676E0E1
:10A358004846FEF797FEF8E7109B00278DF828304F
:10A3680001230DF129060DF128099DF84A1011F075
:10A378001002069200F081800233139A134405926A
:10A388004A0644BF14995B18B8F1000F40F38E8059
:10A39800A8EB03089DF848305807C3F3800B00F179
:10A3A8008580590678D53FB151463846039B984772
:10A3B80000286EDB5F46013530236EE01E075ABF6A
:10A3C800C3F300135F012B27DDE91023002BBFF631
:10A3D80064AF524263EB43032D27CDE910235CE7BA
:10A3E80000275AE700279DF848100DF13E03A3EB1C
:10A3F80009036FF386119B458DF848107FF65BAF14
:10A40800ABEB0303139356E7109880B30DF13E06A8
:10A418000AAB0021009612AAFFF798FCBDF84A3053
:10A42800BBF1000F03F0EF0343F4F04343F01003D4
:10A438008146ADF84A30D5DA00283FF4DCAE002773
:10A44800A6EB090391E7109B07293FF6D4AEDFE896
:10A4580001F00C04060C08080C0C1D70CBE61D80DE
:10A46800C9E6EA17C3E90052C5E61D60C3E6314EE6
:10A4780007460523A6F1050977E7080748BF013312
:10A488007BE7184607935146039B98470028079B8C
:10A4980004DA17B0BDE8F08F2023C34659460029D7
:10A4A8000BF1FF3BEDDC4544D8466D1A37B15146F8
:10A4B8003846039B98470028EBDB01359DF84A3066
:10A4C800DA0601D41B0706D551463020039B98476E
:10A4D8000028DEDB0135069B3BB151469DF84B0059
:10A4E800039B98470028D4DB0135059F2F4406E0DD
:10A4F80051463020039B98470028CADB01357B1B57
:10A50800002BF5DC33464A46514603980DF02AF8ED
:10A518000028BEDB0544A844A8EB0503002B7FF701
:10A528006AAE51462020039B98470028B1DB0135CD
:10A53800F2E700BF54D10200F8B50146012684684D
:10A548002A4F446008460DF024F830B921230B74D3
:10A558008B684C618B614B60F8BD5C2837D108462D
:10A568000DF017F8752805DC5B280ADC2228E9D0ED
:10A578002F28E7D021230B748B6800204C618B6156
:10A58800E9E7A0F15C0306FA03F33B42DAD1752848
:10A59800F0D108460CF0FDFF154D2B5C13F0440F6D
:10A5A800E8D008460CF0F5FF2B5C13F0440FE1D01F
:10A5B80008460CF0EEFF2B5C13F0440FDAD0084687
:10A5C8000CF0E7FF2B5C13F0440FBBD1D2E7222835
:10A5D800B8D18B680874013BC1E905438B604B60B7
:10A5E80008460CF0D6FF8B680248B4E741044401E2
:10A5F80047E9020085A6010038B583680446013B97
:10A6080083600CF0C6FF662805460ED074280ED16C
:10A618000A4920460CF0C9FF48B9636808486361D5
:10A62800A3682574A361636038BD0649F1E7212357
:10A638002374636800206361A368F3E755D10200BF
:10A6480085A6010059D10200014610B5094C0846FB
:10A658000CF09FFF235C5B07F9D42E28F7D030223B
:10A668008B680A744A68013BC1E9052302488B607C
:10A678004B6010BD47E9020085A60100014610B5F0
:10A6880008460CF086FF2D28044630D00BDC222823
:10A698003ED02C2813D010B3204B1B5D1A0732D59F
:10A6A8008B684B60ECE76E2834D010DC662833D01A
:10A6B800F2DC5B2803D05D2801D03A28ECD14B6846
:10A6C80017484B618B680C748B614B6010BD742804
:10A6D80022D07328E0DD7B28F1D07D28EEE70874CE
:10A6E8004B6800204B618B688B614B60EEE7084636
:10A6F8000CF04FFF8B68013B8B60084B1B5C5807C5
:10A70800CAD50848E2E75B07FBD421230B74E7E7C7
:10A718000548DBE70548D9E70548D7E747E90200D8
:10A7280085A6010051A6010041A5010081A70100ED
:10A7380001A601007B2818D8652809D8332812D823
:10A748002F2815D822280CBF00206FF0150070475D
:10A75800084B6638C0B2C34013F0010F14BF002085
:10A768006FF0150070475B28EDE76FF01500704734
:10A7780000207047014020000A4910B504460CF03B
:10A7880014FFD4E901230028B7BF21216E212174C9
:10A798006261A4BF21746261A3616360B4BF0020D9
:10A7A800014810BD5ED1020085A60100F0B516462D
:10A7B80035781C464B7985B0742D0A9A4FEA5303B5
:10A7C80001D0662D0BD1742B01D0662B23D1A5F1B6
:10A7D80074035D425D4125700020014631E0302D53
:10A7E80007D1312B2FD172682260B3689B1A63603E
:10A7F800F2E7222D09D1322BF5D0222B0BD10022E2
:10A80800B3681A7073682360E6E75B2D08D1332BB1
:10A8180042D05B2B0ED06FF015004FF0FF3110E0E7
:10A828009D42F8D1332D37D028D9742DCFD029D8CF
:10A838005B2BCAD100922346D1E902120CF024FF07
:10A84800C11705B0F0BD302BE5D10025B3681F78DE
:10A858001D700DF0F1F905600A2203A970680BF06C
:10A8680073F92060B3681F700DF0E6F900680028DE
:10A8780043D00DF0E1F900684042E1E7302DB2D84D
:10A88800222DBBE77B2BC6D1D1E90212234605B0A6
:10A89800BDE8F0400CF040BF002101227368616000
:10A8A8002360C6688368B34202D16FF015021AE0CC
:10A8B8001D7831B1B5F1220118BF01210133836040
:10A8C800F0E75D2D11D1013AF8D121685B1A013307
:10A8D80063600D4B03608368013B83608361236879
:10A8E80043615F2303741046AAE7222D03D05B2D32
:10A8F800E4D10132E2E70121E0E7B268039B9A4222
:10A9080018BF6FF015009BE785A6010030B51D46FE
:10A91800104B8BB0CDE903305F23059008440690B7
:10A92800694603A814468DF81C300CF096FE28B929
:10A938006FF015004FF0FF310BB030BD9DF80030BF
:10A948007B2BF5D12A4621460E9B03A80CF0E4FE8A
:10A95800F2E700BF85A601004FF02002EFF3118354
:10A9680082F31288BFF36F8F0121044AC2F84015A1
:10A9780083F31188BFF36F8F002070470090034066
:10A9880020B1034B800143F001031847704700BF13
:10A9980050BF02000FF0C2B82DE9F84305464FF04A
:10A9A8002003EFF3118683F31288BFF36F8F4FF004
:10A9B8000C090D4B0D4F1C68DFF834802CB986F359
:10A9C8001188BFF36F8FBDE8F883D4E90123002D08
:10A9D80018BF13462BB198F8102009FB02F2B85C97
:10A9E80098472468EAE700BFECD50020E0D50020AE
:10A9F80044DD0020012270B5164B1C7C04F01F03B7
:10AA08009A40D043144B610903EB8103D3E8EF1F4D
:10AA180001EA0005C3E8E65F002EF7D10A4213D029
:10AA28000E4B0F4D8BB10C236343EA185178E85C49
:10AA38000CF01BFF0020FFF7AFFF0C235C43002343
:10AA48002A192B51C2E9013370BD83F31188BFF372
:10AA58006F8FEFE744DD0020F4D500207378020003
:10AA6800E0D500202DE9F041324B07461D7C4FF020
:10AA78002003EFF3118883F31288BFF36F8F0C2440
:10AA88006C432D4B2D4E195D1A19002947D007CA62
:10AA980006EB040C8CE8070000221A5588F311888D
:10AAA800BFF36F8F0C236B43F05CF218A8B37B1CC9
:10AAB80010D04FF400400021D2F808C0204C0023E9
:10AAC800ECFB00411F4A2046FEF76AF90121381ABB
:10AAD80004F04AF80AF0F6FA0120FFF75DFF1A4B76
:10AAE8006A0903EB8203012205F01F018A40D3E8BB
:10AAF800EF0F1043C3E8E10F0029F8D1134B3BB126
:10AB08000C2303FB05F033185978305C0CF0A1FED8
:10AB1800FFF770FF0AF0EAFA0120BDE8F08101466C
:10AB2800284600F015F80028B8D007C8344484E84F
:10AB38000700B3E744DD0020D4D50020E0D500208D
:10AB48003F420F0040420F00F4D500205B7802001E
:10AB58002DE9F04F85B00E4603A900F043F84FF4F5
:10AB6800004704464FF0000B1B4B039DD3F800A091
:10AB7800431E1BB203EB4303DFF8608005EB83053C
:10AB880024B9A146484605B0BDE8F08FC4465946E9
:10AB980068680023E0FB07C1114A6046FEF700F928
:10ABA800C44659460190A8680023E0FB07C10C4A37
:10ABB8006046FEF7F5F8BAF1FF3FA94601D0824595
:10ABC80005D9731CDED0019B1844B042DAD9013C88
:10ABD800A4B20C3DD4E700BF84C500203F420F005B
:10ABE80040420F0008B9024B0B600020704700BFBD
:10ABF80008C102002DE9F04105460E461746104CE3
:10AC0800DFF84080444507D30DF016F86A23036047
:10AC18004FF0FF30BDE8F0812368AB4200D063B944
:10AC28003A4631462846A368984730B13A463146F5
:10AC38002846E368BDE8F04118471034E2E700BF52
:10AC480090BD0200A0BD02002DE9F04F0F4600267E
:10AC58009BB0039019461046CDE9062310F0F9F889
:10AC6800BB463446CDE904010DF12C08DDF80C9003
:10AC7800CDF820800296BBF1000F21D1002C66D0C0
:10AC8800DDE90632B2F1FF3F08BFB3F1FF3F17BF5E
:10AC98004FF47A724FF0FF33A3FB0232DB0B18BF7D
:10ACA80043EA4243CDE900734FF482723146039B75
:10ACB80002980CF0E4FD044620461BB0BDE8F08F76
:10ACC800D9F80000002822DB0AAA09A9FEF764FEC9
:10ACD8000546E0B14FF0FF324FF0FF330A980CF011
:10ACE800FBFD1AAB019308AB00934FF481724B46FE
:10ACF800294609980CF0C3FD10F1780F82460BD154
:10AD0800002200230A98CDE906230CF0E7FD09F19B
:10AD180008090BF1FF3BAEE71AF1120F0A980BD1A5
:10AD2800029B1BB10CF0DAFD0124F0E7099B2E46CB
:10AD380002930CF0D3FDF7E70CF0D0FDBAF1000F49
:10AD4800E5DA0CF079FFCAF10003036020E006AAF7
:10AD5800DDE90401DFF8D8A00CF0A0FD0294089901
:10AD6800DDE90623A1EB080189100AFB01F1404641
:10AD78000AF04EFC00F10B030B2B054604D82D4CB2
:10AD88001C4114F0010406D00CF056FF6D4205601A
:10AD98004FF0FF3490E7B946A346039DCDF82080D5
:10ADA800B9F1000F0ED1BBF1000F85D0002C83D173
:10ADB800DDE9040106AA0CF071FDDDE90632134352
:10ADC800CDD179E72868029B0028EB8029DB0AAA05
:10ADD80009A9FEF7E1FD064618B92023EB800134E6
:10ADE8001FE04FF0FF324FF0FF330A980CF074FD6C
:10ADF80008AB314640F20312009309982B460CF039
:10AE08003EFD06460A980CF069FD16F10B0F0CD0B2
:10AE18001EB10CF011FF734297E7B5F90630002B0D
:10AE2800DDD1083509F1FF39BAE74FF0010BF8E732
:10AE3800CDCCCCCC7EF7FFFF014B1860704700BF2C
:10AE4800F8D5002010B4034C24682468A44610BC2C
:10AE5800604700BFF8D50020014B1B685B681847A6
:10AE6800F8D50020034610B588B08DF807300DF1ED
:10AE7800070302930123094ACDE9051310680393D8
:10AE8800002207238DF810208DF81C3083680222D9
:10AE98009C6802A94623A04708B010BDFCD5002035
:10AEA80070B586B00E460DF1070105461446FFF74A
:10AEB800D9FFC8B99DF807308DF8085023EA060174
:10AEC8000A4B44EA0102186802AB039302238DF887
:10AED80007208DF8092004938DF814308368012227
:10AEE8009C6803A94623A04706B070BDFCD5002086
:10AEF80010B504460FF0FCFC18B10020024B1C6092
:10AF080010BD6FF01200FBE7FCD5002001491022AC
:10AF18000A60704710ED00E072B6404080F3118877
:10AF2800BFF36F8FBFF34F8F30BF62B6BFF36F8F22
:10AF3800704700BF72B6494081F31188BFF34F8F45
:10AF480020BF80F3118862B6704700BF40B2002866
:10AF580007DB01234109034A00F01F00834042F840
:10AF68002130704700E100E040B200280CDB0122EC
:10AF78000649430900F01F008240203341F823208E
:10AF8800BFF34F8FBFF36F8F704700BF00E100E042
:10AF9800054B420953F82220012300F01F0003FA51
:10AFA80000F01040704700BF00E100E040B2002808
:10AFB80001F10101ACBF00F16040064B4FEA4111BD
:10AFC800C9B2ABBF00F5614000F00F0080F8001374
:10AFD8001954704714ED00E030BFFFF7FDBF00BF04
:10AFE8000B4A08B50B4B22F07F029A60BFF34F8FD4
:10AFF800BFF36F8FD3F8882022F47002C3F888203B
:10B0080009F034FA0AF0AAF900F010FA09F06EFA19
:10B018000080010000ED00E0094A0A4993680968C8
:10B028009867D96708494B6843F080534B60002301
:10B0380083F31188BFF36F8F9368D86F704700BF91
:10B0480044DD00200CCB020000ED00E015498A68C1
:10B0580082F881E04FF030001044EFF3098C80E86B
:10B06800F01F202080F31288BFF36F8F0E4F4FF030
:10B0780000668A698A603E6092F981E0906F0023D9
:10B08800936780F3118802F1300090E8F01F8CF389
:10B09800098802F1000004B50CF072FDBDE8044017
:10B0A8007047000044DD002004ED00E01EF0040FAE
:10B0B8000CBFEFF30880EFF30980816911F8021CD7
:10B0C8000229FFD001B50CF04CFD01BD42F8203C2F
:10B0D800009B0D4942F81C3C019B21F0010142F8FC
:10B0E800183C029B42F8081C42F8143C4FF080734D
:10B0F80042F8043C002383674FF43C43203A02653E
:10B10800C0F88030704700BFF56F0200084B9860A8
:10B11800836E83F30B88104681F30988002163B698
:10B1280081F31188BFF36F8F002200230BF05EFFBD
:10B1380044DD002001B572B60B4A506900281EBFD5
:10B14800002151610FF085FC62B6EFF30580A0F194
:10B1580010004FEAC0000549014409C99847BDE8F5
:10B16800014003490847000044DD002034BB0200C9
:10B178007DB10100044B99689869884203D003495E
:10B188004FF080520A60704744DD002004ED00E073
:10B19800154B9A6A12F0007F9A6A14BF1E201D2070
:10B1A80012F0807F9A6A18BF1F2012F4801F9A6AD3
:10B1B80018BF022012F4002F9A6A18BF212012F437
:10B1C800802F9A6A18BF222012F4003F9A6A18BF8B
:10B1D800232012F4803F9A6A18BF24206FEA0242A3
:10B1E8006FEA12429A62704700ED00E010B5194B01
:10B1F8000246986A9C6A10F4805F14BF17201620D4
:10B2080014F4006F9C6A18BF1820A40509D5986B20
:10B21800986A000404D51AB19A6A22F400429A6224
:10B2280019200C4B9A6A12F4806F9A6A18BF1A2078
:10B23800D2050CD49B6A13F4005F18BF1C20054A82
:10B24800936A43F47F43936200230B7010BD1B2065
:10B25800F5E700BF00ED00E010B51C4B0246986A08
:10B268009C6A10F0100F14BF1120102014F0080F62
:10B278009C6A18BF1220A40709D5586B986A000663
:10B2880004D51AB19A6A22F080029A6213200F4BF1
:10B298009A6A12F0010F9A6A18BF142012F0200F50
:10B2A8009A6A18BF1520D40658BF9B6A074B9A6A3A
:10B2B800920642BF5A6A22F400525A629A6A42F0CF
:10B2C800FF029A6200230B7010BD00BF00ED00E082
:10B2D800F0B54A4B04465B6800258BB0C3F30803FE
:10B2E80085F31188BFF36F8F02F07F40B0F17F4F75
:10B2F80016D1D60714D4550603D4100704D4012553
:10B3080004E012F0040200D00C4600250022033BA2
:10B318008DF80720032B05D8DFE803F02462665F69
:10B328002C46F3E700239DF80720CAB902AE04F1C2
:10B338002007324620686168083403C2BC421646BA
:10B34800F7D1099A002D53D0C2F3080121B96FEA49
:10B3580052226FEA42220992184602A90CF0FFFB1A
:10B368000BB0F0BD254BDA6A9107DBD4DA6A002A04
:10B37800D8DBDA6A5200D5D55A69A16942F48072DD
:10B388005A61BFF34F8FBFF36F8F5A6931F8021CB0
:10B3980022F480725A61BFF34F8FBFF36F8F4DF65F
:10B3A8000272914201D12368BDE79A6AD2B232B1E2
:10B3B80001200DF10701FFF74FFF0346B3E79A6A33
:10B3C80012F47F4F05D001200DF10701FFF70EFFA2
:10B3D800F3E79B6AB3F5803FA4D3FFF7D9FEECE708
:10B3E80000200DF10701E6E700200DF10701EDE768
:10B3F80022F4FF7222F00102ADE700BF00ED00E089
:10B40800044B5A6942F010025A615A6942F4806248
:10B418005A61704700ED00E0EFF30880EFF309810F
:10B4280001B57246FFF754FF01BD00BF002320217C
:10B438000348C2180133412B82F80013F9D1704731
:10B4480000E100E0002080F31488BFF36F8F002034
:10B4580080F30A8880F30B88FFF79CFA00200E49D6
:10B468000860BFF34F8F0D4880F3088800F03EF85E
:10B47800202080F311880A484FF40061401880F3B7
:10B488000988EFF314800221084380F31488BFF37E
:10B498006F8FFFF7A5FD000094ED00E0E044012068
:10B4A80000FC0020BFF34F8F0549064BCA6802F421
:10B4B800E0621343CB60BFF34F8F00BFFDE700BFCF
:10B4C80000ED00E00400FA05002318460649D1F80B
:10B4D8009020C2F30722934200DB7047C1F89830EE
:10B4E800C1F8A0000133F6E700ED00E010B572B630
:10B4F800002484F31388FFF7E7FF23464FF0FF305B
:10B508000C4A03F120010133102B42F82100F8D135
:10B5180000234FF0FF30074A03F160010133102B7D
:10B5280042F82100F8D162B6BFF34F8FBFF36F8F97
:10B5380010BD00BF00E100E0084B9B6883420BD1BF
:10B54800EFF3058343B1064B5A6842F080525A60C4
:10B558005A6A22F400425A6209F08EBE44DD002085
:10B5680000ED00E01FB5094C094A234601210948AE
:10B5780000F0EAF800230393074B0121E41A01A81D
:10B588000193029400F0EAF804B010BD0000042012
:10B5980080C5002008C10200D0C9002010B50C7A6F
:10B5A8000B6804F01F0223F01F031A43CB686409D9
:10B5B80023F01F03054943EA440343F00103C1F89C
:10B5C8009800C1F89C20C1F8A03010BD00ED00E043
:10B5D8002DE9F04F0F46144606464FF000084E4D31
:10B5E80085B0B84580F29480D6F80490B9F1000F80
:10B5F80036D0B9F11F0F40F2898019F01F0F40F0C3
:10B608008580D6F800A01AF01F0F7FD150460CF0A5
:10B61800BDFA834609EB0A0001380CF0B7FA8345F6
:10B6280074D11BF1160F71D05C456FDDC5F898B069
:10B63800D5F89C10C5F898B0D5F8A03021F01F01B6
:10B6480043F01F0AD6E900321A44994202F1FF3941
:10B658001ED1CA4508D131465FFA8BF00CF09FFA2B
:10B6680008F101080C36BCE73146C5F898B0D5F8A2
:10B678009C3022F01F0203F01F031343C5F89C30CF
:10B68800E0B20CF08CFA10F1160F3FD0441CE7E73B
:10B69800C5F898B0D5F8A020013B23F01F0302F0AD
:10B6A8001F021343CA453146E0B2C5F8A030E8D0BE
:10B6B8000CF075FA10F1160F28D0C5F898B0D5F827
:10B6C8009C209DF808300AF1FF3A62F304038DF8D4
:10B6D8000830D5F8A0309DF808205B0863F34712BE
:10B6E8008DF80820D6E900321344009323F01F0395
:10B6F800411C5344A3EB0903C8B223F01F030F28CE
:10B70800039303D86946FFF749FFBFE76FF01504B5
:10B71800204605B0BDE8F08F00ED00E00522044B9F
:10B72800C3F89420BFF34F8FBFF36F8F704700BFEC
:10B7380000ED00E0BFF35F8F0022024BC3F89420B6
:10B74800704700BF00ED00E010B5034C2278FFF70A
:10B758003FFF207010BD00BF9CE500202DE9F74F8A
:10B76800294D8A4606464FF00008AB46274FD0457C
:10B778001BDAD6F80490B9F1000F3FD031680846BB
:10B7880001910CF003FA0199044609EB0100013814
:10B798000CF0FCF984424FF014021D4B08D002FB58
:10B7A80008F36FF015024BF8032003B0BDE8F08FE3
:10B7B80014F1160F2C60F8D01978A142F5DD02FBC0
:10B7C80008B0C7F89840C7F89840D7F89C4000F1EF
:10B7D8000801007B64F304000871D7F8A0000C7915
:10B7E800400860F347140C71D7F89C1021F01F0132
:10B7F8006960D7F8A01021F01F01296108F101083C
:10B8080014350C36B3E700BF00D6002000ED00E089
:10B818009CE5002038B50E4D2C68102C15D800205A
:10B82800FFF788FF0B4B0C4AC3F8C020844205D1B0
:10B838000A4B00201C70FFF771FF38BD696801EBE7
:10B848000011FFF7ABFE0130F0E74FF0FF30F4E7EF
:10B8580014C1020000ED00E0AAFF44009CE50020AE
:10B86800014B1860704700BF8CC50020F8B506462C
:10B878000D460024064FAC4208DA3B6898470A2870
:10B88800305504F1010401D00D28F4D12046F8BD4B
:10B8980088C50020F8B50D46094F461EC0F10104C1
:10B8A800A3199D4201DC2846F8BD73780A2B02D102
:10B8B8000D203B6898473B6816F8010F9847EFE75B
:10B8C8008CC5002010B5074C2368C2180648C0F183
:10B8D800005101F580218A4236BF22604FF0FF30C7
:10B8E800C01810BD14D6002090AF012008B5144828
:10B8F800FFF7FEFA18BB0CF012F900BB0CF01BF9AD
:10B90800E8B901200CF01CF9C8B901200CF00CF9B9
:10B91800A8B907200CF0F1F888B91F200CF0E7F857
:10B9280068B907200CF0F4F848B901200CF0EBF8DE
:10B9380028B9BDE80840012108460CF006B908BD41
:10B94800BCBA020002460B46014808F025BF00BFFA
:10B95800FCC80020014808F099BF00BFFCC80020BF
:10B96800F8B54FF0FF304FF0FF31FFF7EBFF0C4C0D
:10B978000C4EB442274603D3BDE8F840FFF7EABFB0
:10B9880054F8040B03689D68002DF2D02B68002B37
:10B99800EFD009210CF0DAF938462B689847E8E728
:10B9A80098C900209CC9002038B5074C074DAC4207
:10B9B80000D338BD032120460CF074F910B9204695
:10B9C8000CF0D6F90434F2E798C900209CC900208D
:10B9D8002DE9F04F91B00593C3781746DB0906931C
:10B9E80003688846C3F3862213468DF82320002275
:10B9F800CDE90A22CDE90C220E920992C27D0446B5
:10BA0800510609D1059AFAB9122B09D8B3B1BC4A23
:10BA180022FA03F3DA0711D5099811B0BDE8F08FBF
:10BA28003D2B0BD1059B0DF12301019309AB00932D
:10BA3800D8F81C2007230CF0C3F9EDE70B22E37DAF
:10BA480062F30603E375E7E72B2B05D10A97059BFD
:10BA58003E4607EB030B8CE1302B01D10B97F6E741
:10BA6800102B06D06B3303F07F030A2BEFD80C970B
:10BA7800EDE70E97EBE79DF823303578382B4FD854
:10BA880063680133B3F5A03F636049D90C22E37DB5
:10BA980062F30603E37500F049BE314699488B45C9
:10BAA800894608D011F8015B202D00F01D84435D04
:10BAB800002B40F01A846368A9EB06061E44B6F50D
:10BAC800A03F666001F23581CB4540F0DA840BF186
:10BAD800FF364DE10D2D00F04B810A2D00F0488115
:10BAE8000D22E37DD4E70D2D00F042810A2D00F0F0
:10BAF8003F8123884FF0FF326FF3890323804FF093
:10BB0800FF33482DC4E9022303D103238DF82330E2
:10BB1800B8E023786FF30103237012238DF82330E4
:10BB28009DF82300431E3D2B01F2FF8001A252F82D
:10BB380023F000BFDDBA0100EFBA010035BC0100F7
:10BB48006DBC010043BC0100ADBC0100B1BC0100EB
:10BB5800B5BC0100B9BC0100CDBC0100D7BC0100D7
:10BB6800E5BC0100EFBC010011BD010057BE01009A
:10BB7800BBBE01005FBD0100FBBE0100D1BF0100DB
:10BB880001C101002FC101002FC101002FC1010017
:10BB98002FC1010049C1010049C1010049C101008B
:10BBA80049C1010049C1010049C1010049C1010061
:10BBB8008FC101009FC10100A3C10100A7C10100FD
:10BBC800ABC10100AFC10100C1C10100EDC101005D
:10BBD800FDC1010027C2010033C20100A3BA010060
:10BBE800C9C40100E3C401001BC90100E9C4010084
:10BBF8009BC50100D5C80100C9C8010017CC0100C8
:10BC080033CC010079CC010081CC01008BC9010043
:10BC18004FCA0100B3CC0100EDCC010015CD0100E5
:10BC280063CB0100BBCB0100CBCB0100542D06D167
:10BC38000122237862F30103237006230FE0452DC8
:10BC480002D01C22E37D23E70223A375236823F097
:10BC5800FE4323F0030343F00073236013238DF89E
:10BC6800233085E023884FF0FF326FF38903238068
:10BC78004FF0FF330D2DC4E9022303D0482D0FD018
:10BC88000A2DDED1F31B0133019309AB0093012385
:10BC9800D8F8002020460DF123010CF091F81FE19F
:10BCA800052333E70723DAE70823D8E70923D6E78C
:10BCB800303DEBB2092B02D90E22E37DE8E60A23D8
:10BCC8002582CCE72E2D40F07B820B23C7E7303D41
:10BCD800EBB2092BF0D80C236582C0E7202D40F089
:10BCE80090820D23BBE7A5F13003DAB2092A04D903
:10BCF800202D3DD00F22E37DCAE6A3820E23AEE7B6
:10BD080016000400B1DA0200A5F13003092B24D98A
:10BD18000D2D02D00A2D41F01580B84B08220F9343
:10BD2800002303930FAB0293F31B0133019309AB79
:10BD380000932046D8F808100DF123030CF061F8A1
:10BD480000287FF469AE0D2D00F0B180202D00F0A1
:10BD5800FC870A2DCED12A2381E7A38A03EB83032C
:10BD680005EB4303303B9BB2B3F57A7FA382C1D284
:10BD78000136B3457FF47FAE0A9BABEB0707ABEB0D
:10BD8800030303930AABCDE9017309AD00950322C0
:10BD98002046D8F80C100DF123030CF032F80028D7
:10BDA8007FF43AAE0B9B0095ABEB030303930BAB0D
:10BDB800CDE9017304222046D8F810100DF12303B1
:10BDC8000CF01FF800287FF427AE0C9B0095ABEB16
:10BDD800030303930CABCDE9017302222046D8F884
:10BDE80004100DF123030CF00CF800287FF414AEB6
:10BDF8000D9B0095ABEB030303930DABCDE90173EA
:10BE080006222046D8F818100DF123030BF0F9FF8D
:10BE180000287FF401AE0E9B0095ABEB0303039360
:10BE28000EABCDE9017308222046D8F808100DF1B1
:10BE380023030BF0E6FF00287FF4EEAD23689DF89E
:10BE4800232062F390232360059B0993E4E50E9B6E
:10BE580003BB0D2D01D00A2D1AD1684B08220F9370
:10BE6800002303930FAB0293F31B0133019309AB38
:10BE780000932046D8F808100DF123030BF0C1FFFA
:10BE880000287FF4C9AD0D2D11D00A2D3FF463AF02
:10BE98000E9604E00D2D0AD00A2D3FF45CAF102356
:10BEA8008DF82330E3786FF30603E37060E711231E
:10BEB800D5E60D2D18D1112308228DF823300E9BBD
:10BEC800F31A03930EAB0293F31B0133019309ABEF
:10BED8000093D8F808100DF1230320460BF091FFCA
:10BEE80000283FF445AF97E50A2D7FF441AF2A2398
:10BEF800E2E70D2D3FF43CAF0A2D3FF439AF23881C
:10BF08004FF0FF326FF3890323804FF0FF33C4E90A
:10BF1800022345F02003613B192B02D91022E37D4F
:10BF2800B6E50023A3750123E278413D63F30602D9
:10BF3800E270142DF2D801A252F825F099BF010041
:10BF4800A1BF0100A5BF01009DBF010025BF0100E1
:10BF580025BF01009BBF0100A9BF010025BF01004B
:10BF680025BF010025BF0100ADBF0100B1BF010021
:10BF7800B5BF0100B9BF0100BDBF010025BF010069
:10BF8800C1BF0100C5BF0100C9BF0100CDBF01008D
:10BF98001323A3751323B9E51023FAE70523F8E75C
:10BFA8000223F6E70923F4E70A23F2E71923F0E767
:10BFB8000623EEE70323ECE71423EAE71A23E8E76E
:10BFC8000723E6E70F23E4E7002DA7D0A07D0C4B5D
:10BFD800E27853F8203002F07F01202D5B5C11D10C
:10BFE80043B914238DF82330E2784B1C63F306021F
:10BFF800E270BDE6202B91D1F6E700BF5CDF0200BE
:10C008003CC102009D42EFD045F02003613B192B53
:10C0180065D80B029E4A43EA00432B4393424ED015
:10C0280022DC9C4A934248D012DC9B4A93423FD080
:10C0380008DC143A93423ED0113293427FF46EAF3B
:10C048000C2336E0954A93427FF468AF1D2330E015
:10C05800934A93423FD0934A934232D0924A9342B2
:10C068007FF45CAF082324E0904A934235D013DC78
:10C078008F4A93422DD009DC8E4A934223D002F591
:10C08800807293427FF44AAF1E2312E08A4A934299
:10C098007FF444AF12230CE0884A934217D0884AB1
:10C0A800934212D0874A93427FF438AF202300E0AE
:10C0B8000423A37598E71C23FBE71623F9E70B2352
:10C0C800F7E71723F5E71523F3E70E23F1E7112325
:10C0D800EFE70D23EDE71F23EBE71B23E9E72D2D02
:10C0E8007FF41CAF02F07F02012A7FF417AF0A2801
:10C0F8007FF414AF1823DCE7202D3FF439AE0C9BF6
:10C1080003B90C96A37D2946052B04BF18238DF887
:10C1180023309DF8230000F029FE01288DF8230024
:10C128007FF426AE09E0A5F10A03DBB2162B28D866
:10C13800654A22FA03F3DB0723D51122E37DA7E43E
:10C148000D2D17D0202D03D00A2D1AD12A2312E045
:10C158008DF823500C9B0222F31A03930CAB029325
:10C16800F31B0133019309AB0093D8F804100DF1C8
:10C178002303B2E629234FF410228DF823302261DD
:10C18800E8E72946C7E7202D3FF4F2AD482D7FF4B4
:10C1980058AD212363E5222361E523235FE52423AA
:10C1A8005DE525235BE5A5F13103082B3FF684AD5A
:10C1B800303D2623258252E52E2D01D127234EE539
:10C1C800A5F13003092B3FF677AD238A03EB8303F0
:10C1D80005EB4303303B9BB22382B3F57A7FFFF430
:10C1E800C7AD69E5303DEBB2092B3FF665AD2823B5
:10C1F800658234E50D2D01D1292330E50A2D3FF460
:10C20800AAADA5F13003092B3FF656AD638A03EBBF
:10C21800830305EB4303303B9BB26382DDE70A2DC2
:10C228003FF499AD1722E37D32E40D2D01D1372378
:10C2380015E50A2D01D1372370E4202D05D0234BB5
:10C248005B5D8BB91822E37D22E40A9AE3783AB160
:10C258006FF30603E3702B238DF8233000233AE0B5
:10C268000A9662F30603F5E70A9A02B90A96E27893
:10C27800742B6FF30602E2704FF02B028DF8232027
:10C288002ED025D8632B2DD0702BE7D1052322E0A3
:10C298004F010A004801050055010300520204003D
:10C2A8004901090045010A005002050053020F0028
:10C2B80050040C0041020A0042020F00420214001E
:10C2C80045011A0049030F0009004000B1DA0200D5
:10C2D800752BC3D10823A27863F34702A27047E500
:10C2E8000723F8E70123F6E72B46A2785208013A1C
:10C2F8000B2A3FF6D4ABDFE802F0061D2B41607530
:10C308008EA7C0C0C0C0E278A3F16F0CDCF10003B7
:10C3180002F1010243EB0C0302F07F029B0043EAA7
:10C328000223628822F4FF4222F07E0213436380D4
:10C33800FFF7B5BBE2786E2B02F1010C6CF3060235
:10C34800E27014BF00220322A37862F3470328E0B7
:10C35800E2786E2B02F1010C6CF30602E270A2780F
:10C3680004D0742B08D06FF3470202E0042363F370
:10C378004702A270FFF793BB0623F8E7E27802F1C1
:10C38800010C0CF07F0C6CF30602BCF10A0FE27092
:10C3980004D8B14A12F80C209A4205D0A3786FF35A
:10C3A8004703A370FFF77BBBE37803F07F03092BF8
:10C3B8007FF475AB0922A378C7E7E27802F1010C94
:10C3C8000CF07F0C6CF30602BCF1100FE270E5D89C
:10C3D800A24A12F80C209A42E0D1E37803F07F03D6
:10C3E8000F2BE5E7E27802F1010C0CF07F0C6CF3FF
:10C3F8000602BCF10E0FE270D0D8994A12F80C2050
:10C408009A42CBD1E37803F07F030D2B7FF447AB3F
:10C418000A22A37899E7E27802F1010C0CF07F0C6C
:10C428006CF30602BCF1110FE270B7D88D4A12F80E
:10C438000C209A42B2D1E37803F07F03102B7FF4EB
:10C448002EAB0B22A37880E7E27802F1010C0CF006
:10C458007F0C6CF30602BCF1070FE2709ED8824A8B
:10C4680012F80C209A4299D1E37803F07F03062B47
:10C478007FF415AB0C22A37867E7202D8ED1FFF748
:10C488000EBB3A2DA9EB070340F05A842C228DF8F5
:10C4980023200A9A0133A9EB0202039201930AAA04
:10C4A80009AB0292009303222046D8F80C100DF134
:10C4B80023030BF0A6FC00287FF4AEAA4E4657E4EF
:10C4C800202D3FF455AC092D3FF452AC0D2D02D16F
:10C4D8002D23FFF7C4BB0A2D02D12E23FFF7BFBBC4
:10C4E8000B9B03B90B9630238DF82330E37845F086
:10C4F80020026FF30603E370A3785B08093B052B62
:10C5080012D801A151F823F07FC5010049C50100E7
:10C5180039C5010029C5010031C5010079BD0100F7
:10C52800238843F080032380A3786FF3470305E053
:10C53800632AA378F9D10D2262F34703A37017E4A5
:10C54800303DEBB2092B03D91922E37DFFF7A0BADE
:10C5580023889905C3F3870203D5E37D1A22FFF7E1
:10C5680097BA62F07F0262F389032380A560EB1714
:10C57800E360FFF7FDBB6B2AA37801D10F22DBE74D
:10C58800632A01D11022D7E7752A0CBF1122122283
:10C59800D2E7B24694F802904FEA5909D34521D020
:10C5A8009AF800500D2D2DD132238DF82330A37821
:10C5B800042269F34703A3700B9B2046AAEB0303ED
:10C5C80003930BAB0293AAEB07030133019309AB67
:10C5D8000093D8F810100DF123030BF012FC00287B
:10C5E8007FF41AAAA378AAEB060669F34703A37097
:10C5F80063681E44B6F5A03F666040F25B810C227A
:10C60800E37D3DE00A2D31D132238DF82330636874
:10C61800AAEB06061E44B6F5A03F6660AAEB070221
:10C62800EDD8A378204669F34703A3700B9BAAEBC8
:10C63800030303930BABCDE9012309AB0093042259
:10C64800D8F810100DF123030BF0DBFB00287FF462
:10C65800E3A95646FFF764BA6ED2020068D2020018
:10C6680079D2020088D202009AD20200069B5BB9F6
:10C67800092D09D01F2D01D97F2D05D11822E37D61
:10C6880062F30603E37550E045F02003B9F1160F95
:10C6980000F20381DFE819F017000101010101012F
:10C6A80001010101010101010101300038003000E0
:10C6B8000101710086009500AD00C200D700E000BE
:10C6C800E300E300E300ABEB0A02B2F5A03F28BFAA
:10C6D8004FF4A0320D21504607920EF064FD054636
:10C6E8000A215046079A0EF05EFD45B110B1854209
:10C6F80028BF054605F1FF3A0AF1010A4EE700286E
:10C7080014BF05465D46F5E7202DF5D0A5F13003A9
:10C71800DAB2092A15D91922E37D62F306030A223F
:10C72800E375A37862F34703A3705646E37D5A0680
:10C7380002BF202262F30603E3759DF823202368D5
:10C748007CE10A21D4E9020CA0FB012501FB0C5570
:10C758009A1845EBE375984BB0F1993F7CEB0303CE
:10C7680008D31922E37D62F30603E375A37861F326
:10C778004703D9E7C4E90225BEE7E1784A1C02F07D
:10C788007F0262F30601072AE17017D88B498A5C99
:10C798009A4213D1E37803F07F03062B08BF4FF0CA
:10C7A8001309A9E76B2B7CD0632B7DD0752B7ED02A
:10C7B800834AD35C93B915F0DF0F4AD04FF00009D4
:10C7C8009AE7E1784A1C02F07F0262F306010A2A1E
:10C7D800E17003D87B498A5C9A4202D04FF0120973
:10C7E8008AE7E37803F07F03092B08BF4FF01409A9
:10C7F80082E7E1784A1C02F07F0262F30601052A0B
:10C80800E170EBD870498A5C9A42E7D1E37803F08B
:10C818007F03042B08BF4FF015096DE7E1784A1C28
:10C8280002F07F0262F30601072AE170D6D8674951
:10C838008A5C9A42D2D1E37803F07F03062B08BFC3
:10C848004FF0160958E72C2DC8D1E3786FF306038B
:10C85800E3704FF00E094FE7202DAFD14CE72C2D98
:10C8680018D12388B9F1140FC3F387030AD143F011
:10C878000203226822F0FE4222F47F7242EA830217
:10C888002260E6E7B9F1150F0CBF43F0040343F04B
:10C898000803EEE7202DA1D12EE730238DF82330B1
:10C8A8008CE74FF00F0927E74FF0100924E74FF006
:10C8B800110921E7D3453FF40AA95646FFF758BAAC
:10C8C8000A2D7FF4AFAC3123FFF7C9B9202D01D071
:10C8D800092D02D12F23FFF721B9A3785B08133B59
:10C8E800032B07D8DFE803F00D020911238843F072
:10C8F800080323802A23FFF711B9238843F0100384
:10C90800F7E7238843F00403F3E7238843F0200381
:10C91800EFE7202D01D0092D02D12C23FFF79FB975
:10C92800A3785B08133B032B07D8DFE803F0260244
:10C938001E22238843F0080323800B9B03B90B9620
:10C948002A2304228DF823300B9BF31A03930BAB95
:10C958000293F31B019309AB0093D8F810100DF163
:10C96800230320460BF04DFA20E0238843F0100300
:10C97800E2E7238843F02003DEE7238843F004033B
:10C98800DAE72388C3F387015B060A4620D53E23EE
:10C998008DF82330F31B019309AB009320460A233B
:10C9A800D8F824200DF123010BF00AFA00283FF4EF
:10C9B800B7A8FFF731B800BF99999919A2D2020018
:10C9C800B1DA0200AAD20200B5D202009AD202005D
:10C9D80011F0010FE37D02D008063FF5BFAD382105
:10C9E80002F02802282A8DF8231015D0A27D511FA5
:10C9F8004A424A4162F3C713E375D8F8143033B199
:10CA08002046984701280DD0022807D078B9E37D41
:10CA18005B063FF485A80FE00122EBE7E37D43F0D6
:10CA28008003E375238843F480732380EFE70522AE
:10CA3800E37D62F30603E3753822236862F39023EB
:10CA48002360F61B67E000236360238894F91720AE
:10CA580013F0040FC3F3870533D1D4E9023113F17E
:10CA6800FF3C41F1FF301CF1020F70F1FF3020D381
:10CA7800002A32DB680657D40B4367D12378204657
:10CA880013F0030F14BF042312238DF83C30F31B5B
:10CA98000133019309AB0093D8F81C2007230FA991
:10CAA8000BF08EF900287EF4B7AF9DF83C30FFF705
:10CAB800D6B8002A32DB690636D43C238DF83C30E0
:10CAC800F3E7002A04DB6A062ED43323FFF7C7B83E
:10CAD800A37D052B01D06B06F7D52378F61B13F041
:10CAE800030F14BF0423122301368DF8233009AB3A
:10CAF8000093019607232046D8F81C200DF1230146
:10CB08000BF05EF900287EF487AF23689DF8232098
:10CB180062F3902323600996FEF77EBFA37D052B61
:10CB2800DBD06D06C9D5D8E7237813F0030F14BFFF
:10CB3800042312238DF82330F31B0133019309AB2F
:10CB48000093D8F81C200723FFF7A4B820460BF061
:10CB580083F9002892D03D23B0E7ABEB0602D4E975
:10CB680002E1D01796450D9B71EB000C3CBF724655
:10CB7800084603B90D96BEEB020361EB0001C4E958
:10CB88000231013A0B4316447FF4F2A83E238DF894
:10CB980023300D9B0622F31A013303930DAB029346
:10CBA800F31B019309AB0093D8F818100DF1230378
:10CBB800D7E60D9B03B90D96059B5E1E3E44FFF715
:10CBC800D7B82378F51B13F0030F14BF04231223DF
:10CBD80001358DF8233009AB0093019507232046D2
:10CBE800D8F81C200DF123010BF0EAF800287EF498
:10CBF80013AF94F91730002BBFF6BAA823689DF835
:10CC0800232062F3902323600995FEF705BF504B5C
:10CC18005B57581C03D11B22E37DFEF739BFDA1797
:10CC2800C4E902323423FFF71AB80D2D02D1362396
:10CC3800FFF715B8464B5A57511C06D13B2D01D06A
:10CC4800202DE8D13523FFF70AB8D4E902500301B3
:10CC58002901511843EA157343EBE2736FF001029F
:10CC6800AA426FF070428241FFF46EACA1607FE48B
:10CC78000D2D7FF47DA8DAE700236360D4E9023242
:10CC8800134309BF2388392343F04003238008BF97
:10CC98002A238DF82330F31B0133019309AB00934A
:10CCA800D8F820200923FEF7F5BFABEB0603D4E93B
:10CCB8000221DD179A4271EB05000D983CBF13461F
:10CCC8000D4600B90D96D21A61EB0501C4E902219F
:10CCD8000A4303D0013B1E44FFF74AB83A228DF8B5
:10CCE8002320F7E73B238DF823300D9B0622F31A08
:10CCF80003930DAB0293F31B0133019309AB00932C
:10CD0800D8F818100DF12303FFF7E7B80023636084
:10CD180033238DF82330F31B0133019309AB0093C0
:10CD2800D8F824200A23FEF7B5BF1D22E37DFEF7BD
:10CD3800AFBE0C22E37D4E4662F30603E375F5E4CD
:10CD48001822F7E7202D7EF4D5AF0F23FEF787BF13
:10CD5800B1D9020020289ABF024B53F8200002489C
:10CD6800704700BF3CC10200BBD20200A1F10A0318
:10CD7800DBB2162B10B507D87A4A22FA03F3DB0781
:10CD880040F1D780012018E0A0F114030B2BF9D84B
:10CD9800DFE803F006141E233131286883839EB828
:10CDA8002F2900F0BC802A2900F0B98041F0200129
:10CDB800613919298CBF0120152010BD41F02003CD
:10CDC800613B192BF9D93A2914BF01201620F4E741
:10CDD8002F2914BF01201720EFE72F2914BF0120A6
:10CDE8001820EAE74029CDD02F2900F098803F2964
:10CDF80009D11C20E1E72F2900F091803F29F8D0C4
:10CE0800402900F08E8041F02003613B192B40F24D
:10CE18008A805F2911D85A2905D82139C9B21C2915
:10CE2800B0D8514B02E015235B39C9B2CB4013F09F
:10CE3800010F14BF19200120BFE77E2908BF192060
:10CE480018BF0120B9E7494ACB08D25C012301F099
:10CE58000704A3401A42B0D1232968D03F2908BF4C
:10CE68001C20EDE7414ACB08D25C012301F00704FE
:10CE7800A3401A42A1D111F0800FECE73B4ACB083E
:10CE8800D25C012301F0070083401A424DD12329C7
:10CE98004DD03F2908BF1D20D2E7344ACB08D25CC9
:10CEA800012301F0070083401A423ED111F0800FA0
:10CEB800ECE72E4ACB08D25C012301F0070083403F
:10CEC8001A421DD1232932D03F2908BF1F20B7E7B6
:10CED800264ACB08D25C012301F0070083401A429E
:10CEE8000ED111F0800FECE7204ACB08D25C012369
:10CEF80001F00704A3401A427FF45FAF2329E3D16E
:10CF08001F205AE7194ACB08D25C012301F0070415
:10CF1800A3401A427FF451AF11F0800FECE71B20B9
:10CF28004BE71A2049E7192047E71D2045E71E204F
:10CF380043E7A0F11803072B3FF624AF01A252F8EC
:10CF480023F000BF0FCE01000FCE01000FCE01006D
:10CF58004FCE010085CE010085CE0100BBCE010079
:10CF6800F1CE010009004000F9BFFF17B1DB020054
:10CF78000D2A70B504460D4616460BD90E222846D2
:10CF8800094908F041FD28B994F88E3043F00103AF
:10CF980084F88E30A36C2BB1DB681BB1324629466E
:10CFA80020469847002070BDD1DB02002DE9F04FE4
:10CFB8004FF00008C1B0051E0C4699460992CDF8FD
:10CFC8003080C0F20482002900F00182D1F89CA0D0
:10CFD800BAF1000F00F0FB81D1F8A470002F00F027
:10CFE800F681D1F8A860002E00F0F1814022414678
:10CFF80004F150000EF002F9D4F8A030C4E9167616
:10D00800C4E9123AC4E9249594F89800FFF7A2FEFF
:10D018005D4ECDF818800596D4F8B03010A9049369
:10D028005A4B0393D4F8AC200090CDE9013228463E
:10D03800C0220CAB0BF019F8071EC0F2CB81D4E963
:10D048002F23DFF84CA1002B35D00493514B2846F1
:10D05800CDE90223504BC0220093CDE90568CDF8F5
:10D0680004A00CAB10A90BF000F80028C0F28980CE
:10D07800D4F8D0300744002B40D0DDF83080284663
:10D08800424610A90AF0D6FF00287ADBB8F1000F53
:10D09800C0F2A28100234A460C9321462846D4F8C0
:10D0A800D030984700286CDBB84400EB08074FF0F5
:10D0B8000008C34632E0CDE90363374BCDE901A24E
:10D0C8000093C02228460CAB10A90AF0CEFFCCE78B
:10D0D800CDE9003BC02228460CAB10A90AF0C5FFD9
:10D0E800002808F104084CDB0744D4F8D430002B9E
:10D0F800DDD053F80830002BEAD1D8E798469B4694
:10D10800F3E7CDE9003BC02228460CAB10A90AF092
:10D11800ACFF002808F1040833DB0744D4F8B43026
:10D128001BB153F80830002BEBD1D4F8B8307BB1E1
:10D138000022CDE901A3194BCDE903620093C02277
:10D1480028460CAB10A90AF090FF002819DB074409
:10D15800D4F8C83023B9D4F8C430002B00F00081CB
:10D16800D4F8CC30002B00F0E1800DF134080B210D
:10D1780040460B4A09F02DFF0138092812D96FF0F3
:10D188000B0041B0BDE8F08F5ADF02004BEA020005
:10D19800EBDE0200F5E80200E0DB0200E5DB02005E
:10D1A800F2DB02000023CDE904638C4BC02201931B
:10D1B8008B4B28460093CDE902860CAB10A90AF0E8
:10D1C80054FF00280646C0F2E480DDF83080284687
:10D1D800424610A90AF02EFF0028D2DBB8F1000F52
:10D1E8004046CEDB00230C93D4F8C4303E4446447A
:10D1F800002B00F0A4804A4621462846984700287C
:10D20800BFDB06440C9F57B13A46284610A90AF0DE
:10D2180011FF0028B5DB002F3846B2DB3E4404F18D
:10D2280048030893012104F1200320460A930AF0D9
:10D2380031FE6C4BA3636C4B63646C4B23646C4B87
:10D2480063636C4BE3626C4B23636C4B23626C4BE4
:10D25800E3636C4BA3626C4B63620DF0F4FD4FF417
:10D268007A7AA0FB0A030AFB0133C70B47EA434754
:10D2780001234FF00008DDF824900D95ADF8383003
:10D28800099B002B10DD0DF0DEFD4FF47A73A0FB37
:10D2980003030AFB0131C30B43EA4143DF1BA9EB3C
:10D2A80007091F4629EAE97901214A460DA80AF02B
:10D2B800CEFB002873D0C0F28780BDF93A3013F056
:10D2C800280F40F0818013F0100B68D1DA07D7D50A
:10D2D800A16DE26D4144A2EB08025B462846CDE908
:10D2E80000BB0AF080FB031E59D06DDB226E0A9941
:10D2F8001A442266A26D204642440B93FEF768FB4F
:10D308000B9B94F88E109844E36D9845E36C34D3E6
:10D31800002B42D0D846C1F38001D4F89020089859
:10D3280098470023C4E9143323662DE0CDE9006350
:10D33800C02228460CAB10A90AF097FE41E7D4E9B1
:10D3480032871FB94046FBF79DFE07463A464146DD
:10D3580028460AF06FFE0028FFF613AF3E4451E757
:10D36800CDE90063C02228460CAB10A90AF07DFE67
:10D378000028FFF606AFC61944E72BB111F00401E7
:10D3880009D1B8F1000FC8D094F88E305B077FF54B
:10D3980077AF3046F5E60121BFE79846F4E7E56C3C
:10D3A800002DF6D000212022C4E91811A4F88C1011
:10D3B800A166216504F16C000DF020FF0121D4F86D
:10D3C80090200898A847E4E70AF036FCE1E76FF0F8
:10D3D8001500D6E63846D4E64046D2E6EBDE020033
:10D3E800D1DB0200E17E0200577F0200477F020086
:10D3F800677F020079CF0100D97F0200197F020000
:10D40800297F02009F7F0200D17E0200084B70B581
:10D41800C31A0D4607499B10044659434022064843
:10D428000AF082FE2B4601462046BDE870401847A8
:10D438002CD60020B76DDBB644BA0200402373B582
:10D448000B4C0093041B0B460D460A49A41061437C
:10D458000646094A09480AF094FE011E05DA3046D4
:10D468002B4602B0BDE87040184702B070BD00BF3F
:10D478002CD60020B76DDBB6F781020044BA020053
:10D4880070B50022012104460520FDF78FFD0F48E5
:10D4980003F0C6FF0E4B984215D103F0D1FF266961
:10D4A8000C49304609F0C6FF00280BDB012535641E
:10D4B8002469084904F11C0009F0BCFF002801DBBD
:10D4C8000020E56470BD6FF00400FBE715D501008E
:10D4D8000000AD0BC0C1020001460C2300224B43E3
:10D4E80070B50848C41840331844D4E90E56A263EE
:10D4F8000AF007FE2DB132462B46BDE870400248BF
:10D50800184770BD2CD6002044BA020010B101287B
:10D5180004D07047034B1B6C5B0701D1FFF7DCBFDE
:10D52800704700BF2CD6002008B54FF02003EFF35A
:10D53800118183F31288BFF36F8F114A136843F088
:10D5480002001060DA0708D481F31188BFF36F8FE7
:10D55800BDE80840012003F083BF0A4BD3F80C2430
:10D56800D3F80C34D307EFD507480AF0CAFD81F386
:10D578001188BFF36F8FBDE808400020FFF7ACBFEC
:10D588007CD60020005000406CD600207FB50022D9
:10D598000123CDE9022304ABCDE90433094A6B46E4
:10D5A800CDF800D0CDF804D00AF01AFE002805DB2B
:10D5B8004FF480420023684607F0FEF907B05DF893
:10D5C80004FB00BF1582020010B54FF02003EFF3F3
:10D5D800118483F31288BFF36F8F074A136823F00F
:10D5E8000201DB07116002D401200CF09BFA84F3DE
:10D5F8001188BFF36F8F10BD7CD600202DE9F04154
:10D60800012207463549D1E8EF3FC1E8E02F00285D
:10D61800F9D133B9324933484B60CB608A6009F09D
:10D628001CFF7B1E012B28D8012F06D12E4BD3F8C7
:10D638001C3403F00303022B1FD00DF0FFF905463D
:10D64800E8B92A4B1B78D3B102220646264BC3F809
:10D658000823254CDFF89880D4F81834D4F8182417
:10D66800D20316D503F00303022B01D0012F10D1EA
:10D6780075B386F31188BFF36F8FBDE8F0814FF063
:10D688002003EFF3118683F31288BFF36F8F012510
:10D69800DFE7C5B13046FDF74DFCD4F81835DBB2ED
:10D6A800012BD9D1D4F80421002AD5D00022C4F8FE
:10D6B8000421D4F804210222C4F818252022C8F82D
:10D6C8008021A360C8E70021212007F0B5FDE4E729
:10D6D8000222054BC3F80423CFE700BF28D6002059
:10D6E80018D6002048D6002000500040FCEA002050
:10D6F80000E100E008B507480DF0FAF838B106482F
:10D70800FEF7AEF80448FCF7D3F9002008BD6FF027
:10D718001200FBE78CBA020025D701000A2838B5A9
:10D728000446074D04D1AB680D2128465B6898472D
:10D73800AB6803485B68E1B29847204638BD00BF34
:10D748008CBA020030B5406801F01F04057BB2F5C1
:10D75800001F85B044EA451405D1204604F044F979
:10D76800002005B030BD0025B2F5800FCDE9025587
:10D7780014D1B3F1007F0CBF042305238DF80830C2
:10D7880000232046194602AA03F064FF1C4B984266
:10D7980033D10121204604F0E3F8E1E7B3F1C06F8B
:10D7A80020D0B3F1007F14BF012302238DF8083085
:10D7B8008368CB40D907E3D4B2F1A07FE0D1114A06
:10D7C80004F01F03803352F82330DB07D8D40DF15F
:10D7D80007052946204604F06FF80B4B984203D002
:10D7E8000395CDE70323E1E7284604F0B3F8044B9B
:10D7F8009842F5D06FF00B00B3E76FF01500B0E773
:10D808000000AD0B002584400400AD0B10B504F0FA
:10D8180091F8044668B904F065F8084B98420AD1B3
:10D828002146074804F042F8224605213120FDF739
:10D83800BDFB002010BD6FF00400FBE70000AD0B3E
:10D848004DD80100430970B507D10B4B596821B178
:10D8580001250C68094E854001B970BD8A682A40C7
:10D8680002D030464B6898471CB1236821461C46B5
:10D87800F2E72346FAE700BF80D600205CBA020030
:10D888002DE9FF41476801F01F053B7B144645EA37
:10D8980043150E4628460DF1030104F00DF814F463
:10D8A800403F80460BD1284604F0C6F83C4B9845CB
:10D8B80003D19DF8030004F047F800200CE0002392
:10D8C8002846194602AACDE9023303F0C3FE344BB9
:10D8D800984204D06FF0150004B0BDE8F08180458F
:10D8E80003D19DF8030004F02FF8A30349D540F2B3
:10D8F80006332340B3F5837F19D00CD8062B17D0F5
:10D9080004D8ABB1022BE5D1042311E0B3F5807F35
:10D91800E0D101230CE040F20222934226D0B3F575
:10D92800407F25D0B3F5007FD4D1022300E0072340
:10D938008DF8043084F48033C3F30043E0068DF897
:10D9480005304CBF0323C4F3401321038DF8063080
:10D9580010D501237A68B34093600022284601A9B4
:10D9680003F024FF0E4B9842A7D0B3E70523DFE767
:10D978000323DDE7620341BF01237A68B340D36024
:10D98800EBE7E3064FF000034CBF0324C4F3401455
:10D998001A46284601A98DF8044003F05BFEE1E72A
:10D9A8000000AD0B38B544680569E3699847206AFB
:10D9B8000AF0AAFC00280DDB2B462046074A04F192
:10D9C800080104F03DFB064B984204D1204604F0C0
:10D9D80089FB002038BD6FF00400FBE729DA01005D
:10D9E8000000AD0B70B5446823682046D3F808558D
:10D9F800D3F80C6504F086FB3146284604F0ECFDAC
:10DA08000546206A0AF080FC204604F06BFB034BB5
:10DA18009D4214BF6FF00F00002070BD0000AD0BD9
:10DA28000378012B08D0022B08D04BB9054B0B63A8
:10DA380001F1180006F09ABF034BF8E7034BF6E72D
:10DA4800034BF4E70000AD0B0100AE0B0200AE0B78
:10DA58000100AD0B2DE9F04F934614221D46D0F876
:10DA680004A08BB00669BAF8183081460C460DEB55
:10DA780002000021D6F8348002930DF0BFFB8DF828
:10DA880015504FF0FF324FF0FF33304606F094FF49
:10DA980006F11803019300270022002306F118005D
:10DAA80006F08AFF3D465F4501D3002467E0207AEF
:10DAB800020700F1888001375F4562680AD2830750
:10DAC80008D4237D80EA030101F0010103F0040377
